{
	"contracts/SmartContractWallet.sol": {
		"SmartWallet": {
			"abi": [
				{
					"inputs": [],
					"stateMutability": "nonpayable",
					"type": "constructor"
				},
				{
					"inputs": [],
					"name": "ConfirmationFromGuardiansForReset",
					"outputs": [
						{
							"internalType": "uint256",
							"name": "",
							"type": "uint256"
						}
					],
					"stateMutability": "view",
					"type": "function"
				},
				{
					"inputs": [
						{
							"internalType": "address",
							"name": "",
							"type": "address"
						},
						{
							"internalType": "address",
							"name": "",
							"type": "address"
						}
					],
					"name": "NewVote",
					"outputs": [
						{
							"internalType": "bool",
							"name": "",
							"type": "bool"
						}
					],
					"stateMutability": "view",
					"type": "function"
				},
				{
					"inputs": [
						{
							"internalType": "address",
							"name": "",
							"type": "address"
						}
					],
					"name": "allowance",
					"outputs": [
						{
							"internalType": "uint256",
							"name": "",
							"type": "uint256"
						}
					],
					"stateMutability": "view",
					"type": "function"
				},
				{
					"inputs": [],
					"name": "count",
					"outputs": [
						{
							"internalType": "uint256",
							"name": "",
							"type": "uint256"
						}
					],
					"stateMutability": "view",
					"type": "function"
				},
				{
					"inputs": [
						{
							"internalType": "address",
							"name": "",
							"type": "address"
						}
					],
					"name": "guardians",
					"outputs": [
						{
							"internalType": "bool",
							"name": "",
							"type": "bool"
						}
					],
					"stateMutability": "view",
					"type": "function"
				},
				{
					"inputs": [
						{
							"internalType": "address",
							"name": "",
							"type": "address"
						}
					],
					"name": "isAllowed",
					"outputs": [
						{
							"internalType": "bool",
							"name": "",
							"type": "bool"
						}
					],
					"stateMutability": "view",
					"type": "function"
				},
				{
					"inputs": [],
					"name": "nextOwner",
					"outputs": [
						{
							"internalType": "address payable",
							"name": "",
							"type": "address"
						}
					],
					"stateMutability": "view",
					"type": "function"
				},
				{
					"inputs": [],
					"name": "owner",
					"outputs": [
						{
							"internalType": "address payable",
							"name": "",
							"type": "address"
						}
					],
					"stateMutability": "view",
					"type": "function"
				},
				{
					"inputs": [
						{
							"internalType": "address payable",
							"name": "_newOwner",
							"type": "address"
						}
					],
					"name": "proposeNewOwner",
					"outputs": [],
					"stateMutability": "nonpayable",
					"type": "function"
				},
				{
					"inputs": [
						{
							"internalType": "address",
							"name": "_for",
							"type": "address"
						},
						{
							"internalType": "uint256",
							"name": "_amount",
							"type": "uint256"
						}
					],
					"name": "setAllowance",
					"outputs": [],
					"stateMutability": "nonpayable",
					"type": "function"
				},
				{
					"inputs": [
						{
							"internalType": "address",
							"name": "_for",
							"type": "address"
						},
						{
							"internalType": "bool",
							"name": "_setGuardians",
							"type": "bool"
						}
					],
					"name": "setGuardian",
					"outputs": [],
					"stateMutability": "nonpayable",
					"type": "function"
				},
				{
					"inputs": [
						{
							"internalType": "address payable",
							"name": "_to",
							"type": "address"
						},
						{
							"internalType": "uint256",
							"name": "_amount",
							"type": "uint256"
						},
						{
							"internalType": "bytes",
							"name": "_payload",
							"type": "bytes"
						}
					],
					"name": "transfer",
					"outputs": [
						{
							"internalType": "bytes",
							"name": "",
							"type": "bytes"
						}
					],
					"stateMutability": "nonpayable",
					"type": "function"
				},
				{
					"inputs": [
						{
							"internalType": "address",
							"name": "",
							"type": "address"
						}
					],
					"name": "voteCount",
					"outputs": [
						{
							"internalType": "uint256",
							"name": "",
							"type": "uint256"
						}
					],
					"stateMutability": "view",
					"type": "function"
				},
				{
					"stateMutability": "payable",
					"type": "receive"
				}
			],
			"devdoc": {
				"kind": "dev",
				"methods": {},
				"version": 1
			},
			"evm": {
				"assembly": "    /* \"contracts/SmartContractWallet.sol\":56:2406  contract SmartWallet{... */\n  mstore(0x40, 0x80)\n    /* \"contracts/SmartContractWallet.sol\":494:551  constructor(){... */\n  callvalue\n  dup1\n  iszero\n  tag_1\n  jumpi\n  0x00\n  dup1\n  revert\ntag_1:\n  pop\n    /* \"contracts/SmartContractWallet.sol\":532:542  msg.sender */\n  caller\n    /* \"contracts/SmartContractWallet.sol\":518:523  owner */\n  0x01\n  0x00\n    /* \"contracts/SmartContractWallet.sol\":518:543  owner=payable(msg.sender) */\n  0x0100\n  exp\n  dup2\n  sload\n  dup2\n  0xffffffffffffffffffffffffffffffffffffffff\n  mul\n  not\n  and\n  swap1\n  dup4\n  0xffffffffffffffffffffffffffffffffffffffff\n  and\n  mul\n  or\n  swap1\n  sstore\n  pop\n    /* \"contracts/SmartContractWallet.sol\":56:2406  contract SmartWallet{... */\n  dataSize(sub_0)\n  dup1\n  dataOffset(sub_0)\n  0x00\n  codecopy\n  0x00\n  return\nstop\n\nsub_0: assembly {\n        /* \"contracts/SmartContractWallet.sol\":56:2406  contract SmartWallet{... */\n      mstore(0x40, 0x80)\n      jumpi(tag_1, lt(calldatasize, 0x04))\n      shr(0xe0, calldataload(0x00))\n      dup1\n      0x69f3331d\n      gt\n      tag_16\n      jumpi\n      dup1\n      0xbabcc539\n      gt\n      tag_17\n      jumpi\n      dup1\n      0xbabcc539\n      eq\n      tag_12\n      jumpi\n      dup1\n      0xbe45fd62\n      eq\n      tag_13\n      jumpi\n      dup1\n      0xc09bde54\n      eq\n      tag_14\n      jumpi\n      dup1\n      0xc7fdc349\n      eq\n      tag_15\n      jumpi\n      jump(tag_2)\n    tag_17:\n      dup1\n      0x69f3331d\n      eq\n      tag_9\n      jumpi\n      dup1\n      0x8da5cb5b\n      eq\n      tag_10\n      jumpi\n      dup1\n      0xb1f8100d\n      eq\n      tag_11\n      jumpi\n      jump(tag_2)\n    tag_16:\n      dup1\n      0x0633b14a\n      eq\n      tag_3\n      jumpi\n      dup1\n      0x06661abd\n      eq\n      tag_4\n      jumpi\n      dup1\n      0x2b8a1c5a\n      eq\n      tag_5\n      jumpi\n      dup1\n      0x310ec4a7\n      eq\n      tag_6\n      jumpi\n      dup1\n      0x3e5beab9\n      eq\n      tag_7\n      jumpi\n      dup1\n      0x5e3cd7bc\n      eq\n      tag_8\n      jumpi\n      jump(tag_2)\n    tag_1:\n      jumpi(tag_2, calldatasize)\n      stop\n    tag_2:\n      0x00\n      dup1\n      revert\n        /* \"contracts/SmartContractWallet.sol\":83:122  mapping(address=>bool) public guardians */\n    tag_3:\n      callvalue\n      dup1\n      iszero\n      tag_20\n      jumpi\n      0x00\n      dup1\n      revert\n    tag_20:\n      pop\n      tag_21\n      0x04\n      dup1\n      calldatasize\n      sub\n      dup2\n      add\n      swap1\n      tag_22\n      swap2\n      swap1\n      tag_23\n      jump\t// in\n    tag_22:\n      tag_24\n      jump\t// in\n    tag_21:\n      mload(0x40)\n      tag_25\n      swap2\n      swap1\n      tag_26\n      jump\t// in\n    tag_25:\n      mload(0x40)\n      dup1\n      swap2\n      sub\n      swap1\n      return\n        /* \"contracts/SmartContractWallet.sol\":355:372  uint public count */\n    tag_4:\n      callvalue\n      dup1\n      iszero\n      tag_27\n      jumpi\n      0x00\n      dup1\n      revert\n    tag_27:\n      pop\n      tag_28\n      tag_29\n      jump\t// in\n    tag_28:\n      mload(0x40)\n      tag_30\n      swap2\n      swap1\n      tag_31\n      jump\t// in\n    tag_30:\n      mload(0x40)\n      dup1\n      swap2\n      sub\n      swap1\n      return\n        /* \"contracts/SmartContractWallet.sol\":1199:1369  function setGuardian(address _for,bool _setGuardians) public{... */\n    tag_5:\n      callvalue\n      dup1\n      iszero\n      tag_32\n      jumpi\n      0x00\n      dup1\n      revert\n    tag_32:\n      pop\n      tag_33\n      0x04\n      dup1\n      calldatasize\n      sub\n      dup2\n      add\n      swap1\n      tag_34\n      swap2\n      swap1\n      tag_35\n      jump\t// in\n    tag_34:\n      tag_36\n      jump\t// in\n    tag_33:\n      stop\n        /* \"contracts/SmartContractWallet.sol\":1375:1685  function setAllowance(address _for,uint _amount) public{... */\n    tag_6:\n      callvalue\n      dup1\n      iszero\n      tag_37\n      jumpi\n      0x00\n      dup1\n      revert\n    tag_37:\n      pop\n      tag_38\n      0x04\n      dup1\n      calldatasize\n      sub\n      dup2\n      add\n      swap1\n      tag_39\n      swap2\n      swap1\n      tag_40\n      jump\t// in\n    tag_39:\n      tag_41\n      jump\t// in\n    tag_38:\n      stop\n        /* \"contracts/SmartContractWallet.sol\":265:303  mapping(address=>uint)public allowance */\n    tag_7:\n      callvalue\n      dup1\n      iszero\n      tag_42\n      jumpi\n      0x00\n      dup1\n      revert\n    tag_42:\n      pop\n      tag_43\n      0x04\n      dup1\n      calldatasize\n      sub\n      dup2\n      add\n      swap1\n      tag_44\n      swap2\n      swap1\n      tag_23\n      jump\t// in\n    tag_44:\n      tag_45\n      jump\t// in\n    tag_43:\n      mload(0x40)\n      tag_46\n      swap2\n      swap1\n      tag_31\n      jump\t// in\n    tag_46:\n      mload(0x40)\n      dup1\n      swap2\n      sub\n      swap1\n      return\n        /* \"contracts/SmartContractWallet.sol\":442:481  mapping(address=>uint) public voteCount */\n    tag_8:\n      callvalue\n      dup1\n      iszero\n      tag_47\n      jumpi\n      0x00\n      dup1\n      revert\n    tag_47:\n      pop\n      tag_48\n      0x04\n      dup1\n      calldatasize\n      sub\n      dup2\n      add\n      swap1\n      tag_49\n      swap2\n      swap1\n      tag_23\n      jump\t// in\n    tag_49:\n      tag_50\n      jump\t// in\n    tag_48:\n      mload(0x40)\n      tag_51\n      swap2\n      swap1\n      tag_31\n      jump\t// in\n    tag_51:\n      mload(0x40)\n      dup1\n      swap2\n      sub\n      swap1\n      return\n        /* \"contracts/SmartContractWallet.sol\":164:196  address payable public nextOwner */\n    tag_9:\n      callvalue\n      dup1\n      iszero\n      tag_52\n      jumpi\n      0x00\n      dup1\n      revert\n    tag_52:\n      pop\n      tag_53\n      tag_54\n      jump\t// in\n    tag_53:\n      mload(0x40)\n      tag_55\n      swap2\n      swap1\n      tag_56\n      jump\t// in\n    tag_55:\n      mload(0x40)\n      dup1\n      swap2\n      sub\n      swap1\n      return\n        /* \"contracts/SmartContractWallet.sol\":129:157  address payable public owner */\n    tag_10:\n      callvalue\n      dup1\n      iszero\n      tag_57\n      jumpi\n      0x00\n      dup1\n      revert\n    tag_57:\n      pop\n      tag_58\n      tag_59\n      jump\t// in\n    tag_58:\n      mload(0x40)\n      tag_60\n      swap2\n      swap1\n      tag_56\n      jump\t// in\n    tag_60:\n      mload(0x40)\n      dup1\n      swap2\n      sub\n      swap1\n      return\n        /* \"contracts/SmartContractWallet.sol\":557:1193  function proposeNewOwner(address payable _newOwner) public{... */\n    tag_11:\n      callvalue\n      dup1\n      iszero\n      tag_61\n      jumpi\n      0x00\n      dup1\n      revert\n    tag_61:\n      pop\n      tag_62\n      0x04\n      dup1\n      calldatasize\n      sub\n      dup2\n      add\n      swap1\n      tag_63\n      swap2\n      swap1\n      tag_64\n      jump\t// in\n    tag_63:\n      tag_65\n      jump\t// in\n    tag_62:\n      stop\n        /* \"contracts/SmartContractWallet.sol\":310:348  mapping(address=>bool)public isAllowed */\n    tag_12:\n      callvalue\n      dup1\n      iszero\n      tag_66\n      jumpi\n      0x00\n      dup1\n      revert\n    tag_66:\n      pop\n      tag_67\n      0x04\n      dup1\n      calldatasize\n      sub\n      dup2\n      add\n      swap1\n      tag_68\n      swap2\n      swap1\n      tag_23\n      jump\t// in\n    tag_68:\n      tag_69\n      jump\t// in\n    tag_67:\n      mload(0x40)\n      tag_70\n      swap2\n      swap1\n      tag_26\n      jump\t// in\n    tag_70:\n      mload(0x40)\n      dup1\n      swap2\n      sub\n      swap1\n      return\n        /* \"contracts/SmartContractWallet.sol\":1691:2369  function transfer(address payable _to, uint _amount,bytes memory _payload) public returns(bytes memory)... */\n    tag_13:\n      callvalue\n      dup1\n      iszero\n      tag_71\n      jumpi\n      0x00\n      dup1\n      revert\n    tag_71:\n      pop\n      tag_72\n      0x04\n      dup1\n      calldatasize\n      sub\n      dup2\n      add\n      swap1\n      tag_73\n      swap2\n      swap1\n      tag_74\n      jump\t// in\n    tag_73:\n      tag_75\n      jump\t// in\n    tag_72:\n      mload(0x40)\n      tag_76\n      swap2\n      swap1\n      tag_77\n      jump\t// in\n    tag_76:\n      mload(0x40)\n      dup1\n      swap2\n      sub\n      swap1\n      return\n        /* \"contracts/SmartContractWallet.sol\":203:258  mapping(address=>mapping(address=>bool)) public NewVote */\n    tag_14:\n      callvalue\n      dup1\n      iszero\n      tag_78\n      jumpi\n      0x00\n      dup1\n      revert\n    tag_78:\n      pop\n      tag_79\n      0x04\n      dup1\n      calldatasize\n      sub\n      dup2\n      add\n      swap1\n      tag_80\n      swap2\n      swap1\n      tag_81\n      jump\t// in\n    tag_80:\n      tag_82\n      jump\t// in\n    tag_79:\n      mload(0x40)\n      tag_83\n      swap2\n      swap1\n      tag_26\n      jump\t// in\n    tag_83:\n      mload(0x40)\n      dup1\n      swap2\n      sub\n      swap1\n      return\n        /* \"contracts/SmartContractWallet.sol\":379:435  uint public constant ConfirmationFromGuardiansForReset=3 */\n    tag_15:\n      callvalue\n      dup1\n      iszero\n      tag_84\n      jumpi\n      0x00\n      dup1\n      revert\n    tag_84:\n      pop\n      tag_85\n      tag_86\n      jump\t// in\n    tag_85:\n      mload(0x40)\n      tag_87\n      swap2\n      swap1\n      tag_31\n      jump\t// in\n    tag_87:\n      mload(0x40)\n      dup1\n      swap2\n      sub\n      swap1\n      return\n        /* \"contracts/SmartContractWallet.sol\":83:122  mapping(address=>bool) public guardians */\n    tag_24:\n      mstore(0x20, 0x00)\n      dup1\n      0x00\n      mstore\n      keccak256(0x00, 0x40)\n      0x00\n      swap2\n      pop\n      sload\n      swap1\n      0x0100\n      exp\n      swap1\n      div\n      0xff\n      and\n      dup2\n      jump\t// out\n        /* \"contracts/SmartContractWallet.sol\":355:372  uint public count */\n    tag_29:\n      sload(0x06)\n      dup2\n      jump\t// out\n        /* \"contracts/SmartContractWallet.sol\":1199:1369  function setGuardian(address _for,bool _setGuardians) public{... */\n    tag_36:\n        /* \"contracts/SmartContractWallet.sol\":1285:1295  msg.sender */\n      caller\n        /* \"contracts/SmartContractWallet.sol\":1278:1295  owner==msg.sender */\n      0xffffffffffffffffffffffffffffffffffffffff\n      and\n        /* \"contracts/SmartContractWallet.sol\":1278:1283  owner */\n      0x01\n      0x00\n      swap1\n      sload\n      swap1\n      0x0100\n      exp\n      swap1\n      div\n      0xffffffffffffffffffffffffffffffffffffffff\n      and\n        /* \"contracts/SmartContractWallet.sol\":1278:1295  owner==msg.sender */\n      0xffffffffffffffffffffffffffffffffffffffff\n      and\n      eq\n        /* \"contracts/SmartContractWallet.sol\":1270:1321  require(owner==msg.sender,\"Your are not the owner\") */\n      tag_89\n      jumpi\n      mload(0x40)\n      0x08c379a000000000000000000000000000000000000000000000000000000000\n      dup2\n      mstore\n      0x04\n      add\n      tag_90\n      swap1\n      tag_91\n      jump\t// in\n    tag_90:\n      mload(0x40)\n      dup1\n      swap2\n      sub\n      swap1\n      revert\n    tag_89:\n        /* \"contracts/SmartContractWallet.sol\":1348:1361  _setGuardians */\n      dup1\n        /* \"contracts/SmartContractWallet.sol\":1332:1341  guardians */\n      0x00\n        /* \"contracts/SmartContractWallet.sol\":1332:1347  guardians[_for] */\n      dup1\n        /* \"contracts/SmartContractWallet.sol\":1342:1346  _for */\n      dup5\n        /* \"contracts/SmartContractWallet.sol\":1332:1347  guardians[_for] */\n      0xffffffffffffffffffffffffffffffffffffffff\n      and\n      0xffffffffffffffffffffffffffffffffffffffff\n      and\n      dup2\n      mstore\n      0x20\n      add\n      swap1\n      dup2\n      mstore\n      0x20\n      add\n      0x00\n      keccak256\n      0x00\n        /* \"contracts/SmartContractWallet.sol\":1332:1361  guardians[_for]=_setGuardians */\n      0x0100\n      exp\n      dup2\n      sload\n      dup2\n      0xff\n      mul\n      not\n      and\n      swap1\n      dup4\n      iszero\n      iszero\n      mul\n      or\n      swap1\n      sstore\n      pop\n        /* \"contracts/SmartContractWallet.sol\":1199:1369  function setGuardian(address _for,bool _setGuardians) public{... */\n      pop\n      pop\n      jump\t// out\n        /* \"contracts/SmartContractWallet.sol\":1375:1685  function setAllowance(address _for,uint _amount) public{... */\n    tag_41:\n        /* \"contracts/SmartContractWallet.sol\":1456:1466  msg.sender */\n      caller\n        /* \"contracts/SmartContractWallet.sol\":1449:1466  owner==msg.sender */\n      0xffffffffffffffffffffffffffffffffffffffff\n      and\n        /* \"contracts/SmartContractWallet.sol\":1449:1454  owner */\n      0x01\n      0x00\n      swap1\n      sload\n      swap1\n      0x0100\n      exp\n      swap1\n      div\n      0xffffffffffffffffffffffffffffffffffffffff\n      and\n        /* \"contracts/SmartContractWallet.sol\":1449:1466  owner==msg.sender */\n      0xffffffffffffffffffffffffffffffffffffffff\n      and\n      eq\n        /* \"contracts/SmartContractWallet.sol\":1441:1491  require(owner==msg.sender,\"You are not the owner\") */\n      tag_93\n      jumpi\n      mload(0x40)\n      0x08c379a000000000000000000000000000000000000000000000000000000000\n      dup2\n      mstore\n      0x04\n      add\n      tag_94\n      swap1\n      tag_95\n      jump\t// in\n    tag_94:\n      mload(0x40)\n      dup1\n      swap2\n      sub\n      swap1\n      revert\n    tag_93:\n        /* \"contracts/SmartContractWallet.sol\":1518:1525  _amount */\n      dup1\n        /* \"contracts/SmartContractWallet.sol\":1502:1511  allowance */\n      0x04\n        /* \"contracts/SmartContractWallet.sol\":1502:1517  allowance[_for] */\n      0x00\n        /* \"contracts/SmartContractWallet.sol\":1512:1516  _for */\n      dup5\n        /* \"contracts/SmartContractWallet.sol\":1502:1517  allowance[_for] */\n      0xffffffffffffffffffffffffffffffffffffffff\n      and\n      0xffffffffffffffffffffffffffffffffffffffff\n      and\n      dup2\n      mstore\n      0x20\n      add\n      swap1\n      dup2\n      mstore\n      0x20\n      add\n      0x00\n      keccak256\n        /* \"contracts/SmartContractWallet.sol\":1502:1525  allowance[_for]=_amount */\n      dup2\n      swap1\n      sstore\n      pop\n        /* \"contracts/SmartContractWallet.sol\":1547:1548  0 */\n      0x00\n        /* \"contracts/SmartContractWallet.sol\":1539:1546  _amount */\n      dup2\n        /* \"contracts/SmartContractWallet.sol\":1539:1548  _amount>0 */\n      gt\n        /* \"contracts/SmartContractWallet.sol\":1536:1678  if(_amount>0)... */\n      iszero\n      tag_96\n      jumpi\n        /* \"contracts/SmartContractWallet.sol\":1590:1594  true */\n      0x01\n        /* \"contracts/SmartContractWallet.sol\":1574:1583  isAllowed */\n      0x05\n        /* \"contracts/SmartContractWallet.sol\":1574:1589  isAllowed[_for] */\n      0x00\n        /* \"contracts/SmartContractWallet.sol\":1584:1588  _for */\n      dup5\n        /* \"contracts/SmartContractWallet.sol\":1574:1589  isAllowed[_for] */\n      0xffffffffffffffffffffffffffffffffffffffff\n      and\n      0xffffffffffffffffffffffffffffffffffffffff\n      and\n      dup2\n      mstore\n      0x20\n      add\n      swap1\n      dup2\n      mstore\n      0x20\n      add\n      0x00\n      keccak256\n      0x00\n        /* \"contracts/SmartContractWallet.sol\":1574:1594  isAllowed[_for]=true */\n      0x0100\n      exp\n      dup2\n      sload\n      dup2\n      0xff\n      mul\n      not\n      and\n      swap1\n      dup4\n      iszero\n      iszero\n      mul\n      or\n      swap1\n      sstore\n      pop\n        /* \"contracts/SmartContractWallet.sol\":1536:1678  if(_amount>0)... */\n      jump(tag_97)\n    tag_96:\n        /* \"contracts/SmartContractWallet.sol\":1661:1666  false */\n      0x00\n        /* \"contracts/SmartContractWallet.sol\":1645:1654  isAllowed */\n      0x05\n        /* \"contracts/SmartContractWallet.sol\":1645:1660  isAllowed[_for] */\n      0x00\n        /* \"contracts/SmartContractWallet.sol\":1655:1659  _for */\n      dup5\n        /* \"contracts/SmartContractWallet.sol\":1645:1660  isAllowed[_for] */\n      0xffffffffffffffffffffffffffffffffffffffff\n      and\n      0xffffffffffffffffffffffffffffffffffffffff\n      and\n      dup2\n      mstore\n      0x20\n      add\n      swap1\n      dup2\n      mstore\n      0x20\n      add\n      0x00\n      keccak256\n      0x00\n        /* \"contracts/SmartContractWallet.sol\":1645:1666  isAllowed[_for]=false */\n      0x0100\n      exp\n      dup2\n      sload\n      dup2\n      0xff\n      mul\n      not\n      and\n      swap1\n      dup4\n      iszero\n      iszero\n      mul\n      or\n      swap1\n      sstore\n      pop\n        /* \"contracts/SmartContractWallet.sol\":1536:1678  if(_amount>0)... */\n    tag_97:\n        /* \"contracts/SmartContractWallet.sol\":1375:1685  function setAllowance(address _for,uint _amount) public{... */\n      pop\n      pop\n      jump\t// out\n        /* \"contracts/SmartContractWallet.sol\":265:303  mapping(address=>uint)public allowance */\n    tag_45:\n      mstore(0x20, 0x04)\n      dup1\n      0x00\n      mstore\n      keccak256(0x00, 0x40)\n      0x00\n      swap2\n      pop\n      swap1\n      pop\n      sload\n      dup2\n      jump\t// out\n        /* \"contracts/SmartContractWallet.sol\":442:481  mapping(address=>uint) public voteCount */\n    tag_50:\n      mstore(0x20, 0x07)\n      dup1\n      0x00\n      mstore\n      keccak256(0x00, 0x40)\n      0x00\n      swap2\n      pop\n      swap1\n      pop\n      sload\n      dup2\n      jump\t// out\n        /* \"contracts/SmartContractWallet.sol\":164:196  address payable public nextOwner */\n    tag_54:\n      0x02\n      0x00\n      swap1\n      sload\n      swap1\n      0x0100\n      exp\n      swap1\n      div\n      0xffffffffffffffffffffffffffffffffffffffff\n      and\n      dup2\n      jump\t// out\n        /* \"contracts/SmartContractWallet.sol\":129:157  address payable public owner */\n    tag_59:\n      0x01\n      0x00\n      swap1\n      sload\n      swap1\n      0x0100\n      exp\n      swap1\n      div\n      0xffffffffffffffffffffffffffffffffffffffff\n      and\n      dup2\n      jump\t// out\n        /* \"contracts/SmartContractWallet.sol\":557:1193  function proposeNewOwner(address payable _newOwner) public{... */\n    tag_65:\n        /* \"contracts/SmartContractWallet.sol\":634:643  guardians */\n      0x00\n        /* \"contracts/SmartContractWallet.sol\":634:655  guardians[msg.sender] */\n      dup1\n        /* \"contracts/SmartContractWallet.sol\":644:654  msg.sender */\n      caller\n        /* \"contracts/SmartContractWallet.sol\":634:655  guardians[msg.sender] */\n      0xffffffffffffffffffffffffffffffffffffffff\n      and\n      0xffffffffffffffffffffffffffffffffffffffff\n      and\n      dup2\n      mstore\n      0x20\n      add\n      swap1\n      dup2\n      mstore\n      0x20\n      add\n      0x00\n      keccak256\n      0x00\n      swap1\n      sload\n      swap1\n      0x0100\n      exp\n      swap1\n      div\n      0xff\n      and\n        /* \"contracts/SmartContractWallet.sol\":626:681  require(guardians[msg.sender],\"You are not a guardian\") */\n      tag_99\n      jumpi\n      mload(0x40)\n      0x08c379a000000000000000000000000000000000000000000000000000000000\n      dup2\n      mstore\n      0x04\n      add\n      tag_100\n      swap1\n      tag_101\n      jump\t// in\n    tag_100:\n      mload(0x40)\n      dup1\n      swap2\n      sub\n      swap1\n      revert\n    tag_99:\n        /* \"contracts/SmartContractWallet.sol\":732:737  false */\n      0x00\n        /* \"contracts/SmartContractWallet.sol\":700:737  NewVote[_newOwner][msg.sender]==false */\n      iszero\n      iszero\n        /* \"contracts/SmartContractWallet.sol\":700:707  NewVote */\n      0x03\n        /* \"contracts/SmartContractWallet.sol\":700:718  NewVote[_newOwner] */\n      0x00\n        /* \"contracts/SmartContractWallet.sol\":708:717  _newOwner */\n      dup4\n        /* \"contracts/SmartContractWallet.sol\":700:718  NewVote[_newOwner] */\n      0xffffffffffffffffffffffffffffffffffffffff\n      and\n      0xffffffffffffffffffffffffffffffffffffffff\n      and\n      dup2\n      mstore\n      0x20\n      add\n      swap1\n      dup2\n      mstore\n      0x20\n      add\n      0x00\n      keccak256\n        /* \"contracts/SmartContractWallet.sol\":700:730  NewVote[_newOwner][msg.sender] */\n      0x00\n        /* \"contracts/SmartContractWallet.sol\":719:729  msg.sender */\n      caller\n        /* \"contracts/SmartContractWallet.sol\":700:730  NewVote[_newOwner][msg.sender] */\n      0xffffffffffffffffffffffffffffffffffffffff\n      and\n      0xffffffffffffffffffffffffffffffffffffffff\n      and\n      dup2\n      mstore\n      0x20\n      add\n      swap1\n      dup2\n      mstore\n      0x20\n      add\n      0x00\n      keccak256\n      0x00\n      swap1\n      sload\n      swap1\n      0x0100\n      exp\n      swap1\n      div\n      0xff\n      and\n        /* \"contracts/SmartContractWallet.sol\":700:737  NewVote[_newOwner][msg.sender]==false */\n      iszero\n      iszero\n      eq\n        /* \"contracts/SmartContractWallet.sol\":692:763  require(NewVote[_newOwner][msg.sender]==false,\"you have already voted\") */\n      tag_102\n      jumpi\n      mload(0x40)\n      0x08c379a000000000000000000000000000000000000000000000000000000000\n      dup2\n      mstore\n      0x04\n      add\n      tag_103\n      swap1\n      tag_104\n      jump\t// in\n    tag_103:\n      mload(0x40)\n      dup1\n      swap2\n      sub\n      swap1\n      revert\n    tag_102:\n        /* \"contracts/SmartContractWallet.sol\":788:797  _newOwner */\n      dup1\n        /* \"contracts/SmartContractWallet.sol\":777:797  nextOwner!=_newOwner */\n      0xffffffffffffffffffffffffffffffffffffffff\n      and\n        /* \"contracts/SmartContractWallet.sol\":777:786  nextOwner */\n      0x02\n      0x00\n      swap1\n      sload\n      swap1\n      0x0100\n      exp\n      swap1\n      div\n      0xffffffffffffffffffffffffffffffffffffffff\n      and\n        /* \"contracts/SmartContractWallet.sol\":777:797  nextOwner!=_newOwner */\n      0xffffffffffffffffffffffffffffffffffffffff\n      and\n      eq\n        /* \"contracts/SmartContractWallet.sol\":774:933  if(nextOwner!=_newOwner)... */\n      tag_105\n      jumpi\n        /* \"contracts/SmartContractWallet.sol\":848:849  0 */\n      0x00\n        /* \"contracts/SmartContractWallet.sol\":826:835  voteCount */\n      0x07\n        /* \"contracts/SmartContractWallet.sol\":826:846  voteCount[_newOwner] */\n      0x00\n        /* \"contracts/SmartContractWallet.sol\":836:845  _newOwner */\n      dup4\n        /* \"contracts/SmartContractWallet.sol\":826:846  voteCount[_newOwner] */\n      0xffffffffffffffffffffffffffffffffffffffff\n      and\n      0xffffffffffffffffffffffffffffffffffffffff\n      and\n      dup2\n      mstore\n      0x20\n      add\n      swap1\n      dup2\n      mstore\n      0x20\n      add\n      0x00\n      keccak256\n      sload\n        /* \"contracts/SmartContractWallet.sol\":826:849  voteCount[_newOwner]==0 */\n      sub\n        /* \"contracts/SmartContractWallet.sol\":823:871  if(voteCount[_newOwner]==0)... */\n      tag_106\n      jumpi\n        /* \"contracts/SmartContractWallet.sol\":870:871  0 */\n      0x00\n        /* \"contracts/SmartContractWallet.sol\":864:869  count */\n      0x06\n        /* \"contracts/SmartContractWallet.sol\":864:871  count=0 */\n      dup2\n      swap1\n      sstore\n      pop\n        /* \"contracts/SmartContractWallet.sol\":823:871  if(voteCount[_newOwner]==0)... */\n    tag_106:\n        /* \"contracts/SmartContractWallet.sol\":912:921  _newOwner */\n      dup1\n        /* \"contracts/SmartContractWallet.sol\":902:911  nextOwner */\n      0x02\n      0x00\n        /* \"contracts/SmartContractWallet.sol\":902:921  nextOwner=_newOwner */\n      0x0100\n      exp\n      dup2\n      sload\n      dup2\n      0xffffffffffffffffffffffffffffffffffffffff\n      mul\n      not\n      and\n      swap1\n      dup4\n      0xffffffffffffffffffffffffffffffffffffffff\n      and\n      mul\n      or\n      swap1\n      sstore\n      pop\n        /* \"contracts/SmartContractWallet.sol\":774:933  if(nextOwner!=_newOwner)... */\n    tag_105:\n        /* \"contracts/SmartContractWallet.sol\":943:948  count */\n      0x06\n      0x00\n        /* \"contracts/SmartContractWallet.sol\":943:950  count++ */\n      dup2\n      sload\n      dup1\n      swap3\n      swap2\n      swap1\n      tag_107\n      swap1\n      tag_108\n      jump\t// in\n    tag_107:\n      swap2\n      swap1\n      pop\n      sstore\n      pop\n        /* \"contracts/SmartContractWallet.sol\":982:987  count */\n      sload(0x06)\n        /* \"contracts/SmartContractWallet.sol\":961:970  voteCount */\n      0x07\n        /* \"contracts/SmartContractWallet.sol\":961:981  voteCount[nextOwner] */\n      0x00\n        /* \"contracts/SmartContractWallet.sol\":971:980  nextOwner */\n      0x02\n      0x00\n      swap1\n      sload\n      swap1\n      0x0100\n      exp\n      swap1\n      div\n      0xffffffffffffffffffffffffffffffffffffffff\n      and\n        /* \"contracts/SmartContractWallet.sol\":961:981  voteCount[nextOwner] */\n      0xffffffffffffffffffffffffffffffffffffffff\n      and\n      0xffffffffffffffffffffffffffffffffffffffff\n      and\n      dup2\n      mstore\n      0x20\n      add\n      swap1\n      dup2\n      mstore\n      0x20\n      add\n      0x00\n      keccak256\n        /* \"contracts/SmartContractWallet.sol\":961:987  voteCount[nextOwner]=count */\n      dup2\n      swap1\n      sstore\n      pop\n        /* \"contracts/SmartContractWallet.sol\":1029:1033  true */\n      0x01\n        /* \"contracts/SmartContractWallet.sol\":998:1005  NewVote */\n      0x03\n        /* \"contracts/SmartContractWallet.sol\":998:1016  NewVote[nextOwner] */\n      0x00\n        /* \"contracts/SmartContractWallet.sol\":1006:1015  nextOwner */\n      0x02\n      0x00\n      swap1\n      sload\n      swap1\n      0x0100\n      exp\n      swap1\n      div\n      0xffffffffffffffffffffffffffffffffffffffff\n      and\n        /* \"contracts/SmartContractWallet.sol\":998:1016  NewVote[nextOwner] */\n      0xffffffffffffffffffffffffffffffffffffffff\n      and\n      0xffffffffffffffffffffffffffffffffffffffff\n      and\n      dup2\n      mstore\n      0x20\n      add\n      swap1\n      dup2\n      mstore\n      0x20\n      add\n      0x00\n      keccak256\n        /* \"contracts/SmartContractWallet.sol\":998:1028  NewVote[nextOwner][msg.sender] */\n      0x00\n        /* \"contracts/SmartContractWallet.sol\":1017:1027  msg.sender */\n      caller\n        /* \"contracts/SmartContractWallet.sol\":998:1028  NewVote[nextOwner][msg.sender] */\n      0xffffffffffffffffffffffffffffffffffffffff\n      and\n      0xffffffffffffffffffffffffffffffffffffffff\n      and\n      dup2\n      mstore\n      0x20\n      add\n      swap1\n      dup2\n      mstore\n      0x20\n      add\n      0x00\n      keccak256\n      0x00\n        /* \"contracts/SmartContractWallet.sol\":998:1033  NewVote[nextOwner][msg.sender]=true */\n      0x0100\n      exp\n      dup2\n      sload\n      dup2\n      0xff\n      mul\n      not\n      and\n      swap1\n      dup4\n      iszero\n      iszero\n      mul\n      or\n      swap1\n      sstore\n      pop\n        /* \"contracts/SmartContractWallet.sol\":434:435  3 */\n      0x03\n        /* \"contracts/SmartContractWallet.sol\":1047:1052  count */\n      sload(0x06)\n        /* \"contracts/SmartContractWallet.sol\":1047:1087  count>=ConfirmationFromGuardiansForReset */\n      lt\n        /* \"contracts/SmartContractWallet.sol\":1044:1184  if(count>=ConfirmationFromGuardiansForReset)... */\n      tag_109\n      jumpi\n        /* \"contracts/SmartContractWallet.sol\":1119:1128  nextOwner */\n      0x02\n      0x00\n      swap1\n      sload\n      swap1\n      0x0100\n      exp\n      swap1\n      div\n      0xffffffffffffffffffffffffffffffffffffffff\n      and\n        /* \"contracts/SmartContractWallet.sol\":1113:1118  owner */\n      0x01\n      0x00\n        /* \"contracts/SmartContractWallet.sol\":1113:1128  owner=nextOwner */\n      0x0100\n      exp\n      dup2\n      sload\n      dup2\n      0xffffffffffffffffffffffffffffffffffffffff\n      mul\n      not\n      and\n      swap1\n      dup4\n      0xffffffffffffffffffffffffffffffffffffffff\n      and\n      mul\n      or\n      swap1\n      sstore\n      pop\n        /* \"contracts/SmartContractWallet.sol\":1169:1170  0 */\n      0x00\n        /* \"contracts/SmartContractWallet.sol\":1143:1152  nextOwner */\n      0x02\n      0x00\n        /* \"contracts/SmartContractWallet.sol\":1143:1172  nextOwner=payable(address(0)) */\n      0x0100\n      exp\n      dup2\n      sload\n      dup2\n      0xffffffffffffffffffffffffffffffffffffffff\n      mul\n      not\n      and\n      swap1\n      dup4\n      0xffffffffffffffffffffffffffffffffffffffff\n      and\n      mul\n      or\n      swap1\n      sstore\n      pop\n        /* \"contracts/SmartContractWallet.sol\":1044:1184  if(count>=ConfirmationFromGuardiansForReset)... */\n    tag_109:\n        /* \"contracts/SmartContractWallet.sol\":557:1193  function proposeNewOwner(address payable _newOwner) public{... */\n      pop\n      jump\t// out\n        /* \"contracts/SmartContractWallet.sol\":310:348  mapping(address=>bool)public isAllowed */\n    tag_69:\n      mstore(0x20, 0x05)\n      dup1\n      0x00\n      mstore\n      keccak256(0x00, 0x40)\n      0x00\n      swap2\n      pop\n      sload\n      swap1\n      0x0100\n      exp\n      swap1\n      div\n      0xff\n      and\n      dup2\n      jump\t// out\n        /* \"contracts/SmartContractWallet.sol\":1691:2369  function transfer(address payable _to, uint _amount,bytes memory _payload) public returns(bytes memory)... */\n    tag_75:\n        /* \"contracts/SmartContractWallet.sol\":1781:1793  bytes memory */\n      0x60\n        /* \"contracts/SmartContractWallet.sol\":1907:1912  owner */\n      0x01\n      0x00\n      swap1\n      sload\n      swap1\n      0x0100\n      exp\n      swap1\n      div\n      0xffffffffffffffffffffffffffffffffffffffff\n      and\n        /* \"contracts/SmartContractWallet.sol\":1895:1912  msg.sender!=owner */\n      0xffffffffffffffffffffffffffffffffffffffff\n      and\n        /* \"contracts/SmartContractWallet.sol\":1895:1905  msg.sender */\n      caller\n        /* \"contracts/SmartContractWallet.sol\":1895:1912  msg.sender!=owner */\n      0xffffffffffffffffffffffffffffffffffffffff\n      and\n      eq\n        /* \"contracts/SmartContractWallet.sol\":1892:2194  if(msg.sender!=owner)... */\n      tag_111\n      jumpi\n        /* \"contracts/SmartContractWallet.sol\":1969:1976  _amount */\n      dup3\n        /* \"contracts/SmartContractWallet.sol\":1946:1955  allowance */\n      0x04\n        /* \"contracts/SmartContractWallet.sol\":1946:1967  allowance[msg.sender] */\n      0x00\n        /* \"contracts/SmartContractWallet.sol\":1956:1966  msg.sender */\n      caller\n        /* \"contracts/SmartContractWallet.sol\":1946:1967  allowance[msg.sender] */\n      0xffffffffffffffffffffffffffffffffffffffff\n      and\n      0xffffffffffffffffffffffffffffffffffffffff\n      and\n      dup2\n      mstore\n      0x20\n      add\n      swap1\n      dup2\n      mstore\n      0x20\n      add\n      0x00\n      keccak256\n      sload\n        /* \"contracts/SmartContractWallet.sol\":1946:1976  allowance[msg.sender]>=_amount */\n      lt\n      iszero\n        /* \"contracts/SmartContractWallet.sol\":1938:1997  require(allowance[msg.sender]>=_amount,\"Aukat me rehle bc\") */\n      tag_112\n      jumpi\n      mload(0x40)\n      0x08c379a000000000000000000000000000000000000000000000000000000000\n      dup2\n      mstore\n      0x04\n      add\n      tag_113\n      swap1\n      tag_114\n      jump\t// in\n    tag_113:\n      mload(0x40)\n      dup1\n      swap2\n      sub\n      swap1\n      revert\n    tag_112:\n        /* \"contracts/SmartContractWallet.sol\":2083:2092  isAllowed */\n      0x05\n        /* \"contracts/SmartContractWallet.sol\":2083:2104  isAllowed[msg.sender] */\n      0x00\n        /* \"contracts/SmartContractWallet.sol\":2093:2103  msg.sender */\n      caller\n        /* \"contracts/SmartContractWallet.sol\":2083:2104  isAllowed[msg.sender] */\n      0xffffffffffffffffffffffffffffffffffffffff\n      and\n      0xffffffffffffffffffffffffffffffffffffffff\n      and\n      dup2\n      mstore\n      0x20\n      add\n      swap1\n      dup2\n      mstore\n      0x20\n      add\n      0x00\n      keccak256\n      0x00\n      swap1\n      sload\n      swap1\n      0x0100\n      exp\n      swap1\n      div\n      0xff\n      and\n        /* \"contracts/SmartContractWallet.sol\":2075:2135  require(isAllowed[msg.sender],\"You are not allowed to send\") */\n      tag_115\n      jumpi\n      mload(0x40)\n      0x08c379a000000000000000000000000000000000000000000000000000000000\n      dup2\n      mstore\n      0x04\n      add\n      tag_116\n      swap1\n      tag_117\n      jump\t// in\n    tag_116:\n      mload(0x40)\n      dup1\n      swap2\n      sub\n      swap1\n      revert\n    tag_115:\n        /* \"contracts/SmartContractWallet.sol\":2175:2182  _amount */\n      dup3\n        /* \"contracts/SmartContractWallet.sol\":2152:2161  allowance */\n      0x04\n        /* \"contracts/SmartContractWallet.sol\":2152:2173  allowance[msg.sender] */\n      0x00\n        /* \"contracts/SmartContractWallet.sol\":2162:2172  msg.sender */\n      caller\n        /* \"contracts/SmartContractWallet.sol\":2152:2173  allowance[msg.sender] */\n      0xffffffffffffffffffffffffffffffffffffffff\n      and\n      0xffffffffffffffffffffffffffffffffffffffff\n      and\n      dup2\n      mstore\n      0x20\n      add\n      swap1\n      dup2\n      mstore\n      0x20\n      add\n      0x00\n      keccak256\n      0x00\n        /* \"contracts/SmartContractWallet.sol\":2152:2182  allowance[msg.sender]-=_amount */\n      dup3\n      dup3\n      sload\n      tag_118\n      swap2\n      swap1\n      tag_119\n      jump\t// in\n    tag_118:\n      swap3\n      pop\n      pop\n      dup2\n      swap1\n      sstore\n      pop\n        /* \"contracts/SmartContractWallet.sol\":1892:2194  if(msg.sender!=owner)... */\n    tag_111:\n        /* \"contracts/SmartContractWallet.sol\":2205:2217  bool success */\n      0x00\n        /* \"contracts/SmartContractWallet.sol\":2220:2243  bytes memory returnData */\n      dup1\n        /* \"contracts/SmartContractWallet.sol\":2245:2248  _to */\n      dup6\n        /* \"contracts/SmartContractWallet.sol\":2245:2253  _to.call */\n      0xffffffffffffffffffffffffffffffffffffffff\n      and\n        /* \"contracts/SmartContractWallet.sol\":2260:2267  _amount */\n      dup6\n        /* \"contracts/SmartContractWallet.sol\":2269:2277  _payload */\n      dup6\n        /* \"contracts/SmartContractWallet.sol\":2245:2278  _to.call{value:_amount}(_payload) */\n      mload(0x40)\n      tag_120\n      swap2\n      swap1\n      tag_121\n      jump\t// in\n    tag_120:\n      0x00\n      mload(0x40)\n      dup1\n      dup4\n      sub\n      dup2\n      dup6\n      dup8\n      gas\n      call\n      swap3\n      pop\n      pop\n      pop\n      returndatasize\n      dup1\n      0x00\n      dup2\n      eq\n      tag_124\n      jumpi\n      mload(0x40)\n      swap2\n      pop\n      and(add(returndatasize, 0x3f), not(0x1f))\n      dup3\n      add\n      0x40\n      mstore\n      returndatasize\n      dup3\n      mstore\n      returndatasize\n      0x00\n      0x20\n      dup5\n      add\n      returndatacopy\n      jump(tag_123)\n    tag_124:\n      0x60\n      swap2\n      pop\n    tag_123:\n      pop\n        /* \"contracts/SmartContractWallet.sol\":2204:2278  (bool success,  bytes memory returnData)=_to.call{value:_amount}(_payload) */\n      swap2\n      pop\n      swap2\n      pop\n        /* \"contracts/SmartContractWallet.sol\":2297:2304  success */\n      dup2\n        /* \"contracts/SmartContractWallet.sol\":2289:2333  require(success, \"Aborting the transaction\") */\n      tag_125\n      jumpi\n      mload(0x40)\n      0x08c379a000000000000000000000000000000000000000000000000000000000\n      dup2\n      mstore\n      0x04\n      add\n      tag_126\n      swap1\n      tag_127\n      jump\t// in\n    tag_126:\n      mload(0x40)\n      dup1\n      swap2\n      sub\n      swap1\n      revert\n    tag_125:\n        /* \"contracts/SmartContractWallet.sol\":2351:2361  returnData */\n      dup1\n        /* \"contracts/SmartContractWallet.sol\":2344:2361  return returnData */\n      swap3\n      pop\n      pop\n      pop\n        /* \"contracts/SmartContractWallet.sol\":1691:2369  function transfer(address payable _to, uint _amount,bytes memory _payload) public returns(bytes memory)... */\n      swap4\n      swap3\n      pop\n      pop\n      pop\n      jump\t// out\n        /* \"contracts/SmartContractWallet.sol\":203:258  mapping(address=>mapping(address=>bool)) public NewVote */\n    tag_82:\n      mstore(0x20, 0x03)\n      dup2\n      0x00\n      mstore\n      mstore(0x20, keccak256(0x00, 0x40))\n      dup1\n      0x00\n      mstore\n      keccak256(0x00, 0x40)\n      0x00\n      swap2\n      pop\n      swap2\n      pop\n      swap1\n      sload\n      swap1\n      0x0100\n      exp\n      swap1\n      div\n      0xff\n      and\n      dup2\n      jump\t// out\n        /* \"contracts/SmartContractWallet.sol\":379:435  uint public constant ConfirmationFromGuardiansForReset=3 */\n    tag_86:\n        /* \"contracts/SmartContractWallet.sol\":434:435  3 */\n      0x03\n        /* \"contracts/SmartContractWallet.sol\":379:435  uint public constant ConfirmationFromGuardiansForReset=3 */\n      dup2\n      jump\t// out\n        /* \"#utility.yul\":7:82   */\n    tag_128:\n        /* \"#utility.yul\":40:46   */\n      0x00\n        /* \"#utility.yul\":73:75   */\n      0x40\n        /* \"#utility.yul\":67:76   */\n      mload\n        /* \"#utility.yul\":57:76   */\n      swap1\n      pop\n        /* \"#utility.yul\":7:82   */\n      swap1\n      jump\t// out\n        /* \"#utility.yul\":88:205   */\n    tag_129:\n        /* \"#utility.yul\":197:198   */\n      0x00\n        /* \"#utility.yul\":194:195   */\n      dup1\n        /* \"#utility.yul\":187:199   */\n      revert\n        /* \"#utility.yul\":211:328   */\n    tag_130:\n        /* \"#utility.yul\":320:321   */\n      0x00\n        /* \"#utility.yul\":317:318   */\n      dup1\n        /* \"#utility.yul\":310:322   */\n      revert\n        /* \"#utility.yul\":334:460   */\n    tag_131:\n        /* \"#utility.yul\":371:378   */\n      0x00\n        /* \"#utility.yul\":411:453   */\n      0xffffffffffffffffffffffffffffffffffffffff\n        /* \"#utility.yul\":404:409   */\n      dup3\n        /* \"#utility.yul\":400:454   */\n      and\n        /* \"#utility.yul\":389:454   */\n      swap1\n      pop\n        /* \"#utility.yul\":334:460   */\n      swap2\n      swap1\n      pop\n      jump\t// out\n        /* \"#utility.yul\":466:562   */\n    tag_132:\n        /* \"#utility.yul\":503:510   */\n      0x00\n        /* \"#utility.yul\":532:556   */\n      tag_185\n        /* \"#utility.yul\":550:555   */\n      dup3\n        /* \"#utility.yul\":532:556   */\n      tag_131\n      jump\t// in\n    tag_185:\n        /* \"#utility.yul\":521:556   */\n      swap1\n      pop\n        /* \"#utility.yul\":466:562   */\n      swap2\n      swap1\n      pop\n      jump\t// out\n        /* \"#utility.yul\":568:690   */\n    tag_133:\n        /* \"#utility.yul\":641:665   */\n      tag_187\n        /* \"#utility.yul\":659:664   */\n      dup2\n        /* \"#utility.yul\":641:665   */\n      tag_132\n      jump\t// in\n    tag_187:\n        /* \"#utility.yul\":634:639   */\n      dup2\n        /* \"#utility.yul\":631:666   */\n      eq\n        /* \"#utility.yul\":621:684   */\n      tag_188\n      jumpi\n        /* \"#utility.yul\":680:681   */\n      0x00\n        /* \"#utility.yul\":677:678   */\n      dup1\n        /* \"#utility.yul\":670:682   */\n      revert\n        /* \"#utility.yul\":621:684   */\n    tag_188:\n        /* \"#utility.yul\":568:690   */\n      pop\n      jump\t// out\n        /* \"#utility.yul\":696:835   */\n    tag_134:\n        /* \"#utility.yul\":742:747   */\n      0x00\n        /* \"#utility.yul\":780:786   */\n      dup2\n        /* \"#utility.yul\":767:787   */\n      calldataload\n        /* \"#utility.yul\":758:787   */\n      swap1\n      pop\n        /* \"#utility.yul\":796:829   */\n      tag_190\n        /* \"#utility.yul\":823:828   */\n      dup2\n        /* \"#utility.yul\":796:829   */\n      tag_133\n      jump\t// in\n    tag_190:\n        /* \"#utility.yul\":696:835   */\n      swap3\n      swap2\n      pop\n      pop\n      jump\t// out\n        /* \"#utility.yul\":841:1170   */\n    tag_23:\n        /* \"#utility.yul\":900:906   */\n      0x00\n        /* \"#utility.yul\":949:951   */\n      0x20\n        /* \"#utility.yul\":937:946   */\n      dup3\n        /* \"#utility.yul\":928:935   */\n      dup5\n        /* \"#utility.yul\":924:947   */\n      sub\n        /* \"#utility.yul\":920:952   */\n      slt\n        /* \"#utility.yul\":917:1036   */\n      iszero\n      tag_192\n      jumpi\n        /* \"#utility.yul\":955:1034   */\n      tag_193\n      tag_129\n      jump\t// in\n    tag_193:\n        /* \"#utility.yul\":917:1036   */\n    tag_192:\n        /* \"#utility.yul\":1075:1076   */\n      0x00\n        /* \"#utility.yul\":1100:1153   */\n      tag_194\n        /* \"#utility.yul\":1145:1152   */\n      dup5\n        /* \"#utility.yul\":1136:1142   */\n      dup3\n        /* \"#utility.yul\":1125:1134   */\n      dup6\n        /* \"#utility.yul\":1121:1143   */\n      add\n        /* \"#utility.yul\":1100:1153   */\n      tag_134\n      jump\t// in\n    tag_194:\n        /* \"#utility.yul\":1090:1153   */\n      swap2\n      pop\n        /* \"#utility.yul\":1046:1163   */\n      pop\n        /* \"#utility.yul\":841:1170   */\n      swap3\n      swap2\n      pop\n      pop\n      jump\t// out\n        /* \"#utility.yul\":1176:1266   */\n    tag_135:\n        /* \"#utility.yul\":1210:1217   */\n      0x00\n        /* \"#utility.yul\":1253:1258   */\n      dup2\n        /* \"#utility.yul\":1246:1259   */\n      iszero\n        /* \"#utility.yul\":1239:1260   */\n      iszero\n        /* \"#utility.yul\":1228:1260   */\n      swap1\n      pop\n        /* \"#utility.yul\":1176:1266   */\n      swap2\n      swap1\n      pop\n      jump\t// out\n        /* \"#utility.yul\":1272:1381   */\n    tag_136:\n        /* \"#utility.yul\":1353:1374   */\n      tag_197\n        /* \"#utility.yul\":1368:1373   */\n      dup2\n        /* \"#utility.yul\":1353:1374   */\n      tag_135\n      jump\t// in\n    tag_197:\n        /* \"#utility.yul\":1348:1351   */\n      dup3\n        /* \"#utility.yul\":1341:1375   */\n      mstore\n        /* \"#utility.yul\":1272:1381   */\n      pop\n      pop\n      jump\t// out\n        /* \"#utility.yul\":1387:1597   */\n    tag_26:\n        /* \"#utility.yul\":1474:1478   */\n      0x00\n        /* \"#utility.yul\":1512:1514   */\n      0x20\n        /* \"#utility.yul\":1501:1510   */\n      dup3\n        /* \"#utility.yul\":1497:1515   */\n      add\n        /* \"#utility.yul\":1489:1515   */\n      swap1\n      pop\n        /* \"#utility.yul\":1525:1590   */\n      tag_199\n        /* \"#utility.yul\":1587:1588   */\n      0x00\n        /* \"#utility.yul\":1576:1585   */\n      dup4\n        /* \"#utility.yul\":1572:1589   */\n      add\n        /* \"#utility.yul\":1563:1569   */\n      dup5\n        /* \"#utility.yul\":1525:1590   */\n      tag_136\n      jump\t// in\n    tag_199:\n        /* \"#utility.yul\":1387:1597   */\n      swap3\n      swap2\n      pop\n      pop\n      jump\t// out\n        /* \"#utility.yul\":1603:1680   */\n    tag_137:\n        /* \"#utility.yul\":1640:1647   */\n      0x00\n        /* \"#utility.yul\":1669:1674   */\n      dup2\n        /* \"#utility.yul\":1658:1674   */\n      swap1\n      pop\n        /* \"#utility.yul\":1603:1680   */\n      swap2\n      swap1\n      pop\n      jump\t// out\n        /* \"#utility.yul\":1686:1804   */\n    tag_138:\n        /* \"#utility.yul\":1773:1797   */\n      tag_202\n        /* \"#utility.yul\":1791:1796   */\n      dup2\n        /* \"#utility.yul\":1773:1797   */\n      tag_137\n      jump\t// in\n    tag_202:\n        /* \"#utility.yul\":1768:1771   */\n      dup3\n        /* \"#utility.yul\":1761:1798   */\n      mstore\n        /* \"#utility.yul\":1686:1804   */\n      pop\n      pop\n      jump\t// out\n        /* \"#utility.yul\":1810:2032   */\n    tag_31:\n        /* \"#utility.yul\":1903:1907   */\n      0x00\n        /* \"#utility.yul\":1941:1943   */\n      0x20\n        /* \"#utility.yul\":1930:1939   */\n      dup3\n        /* \"#utility.yul\":1926:1944   */\n      add\n        /* \"#utility.yul\":1918:1944   */\n      swap1\n      pop\n        /* \"#utility.yul\":1954:2025   */\n      tag_204\n        /* \"#utility.yul\":2022:2023   */\n      0x00\n        /* \"#utility.yul\":2011:2020   */\n      dup4\n        /* \"#utility.yul\":2007:2024   */\n      add\n        /* \"#utility.yul\":1998:2004   */\n      dup5\n        /* \"#utility.yul\":1954:2025   */\n      tag_138\n      jump\t// in\n    tag_204:\n        /* \"#utility.yul\":1810:2032   */\n      swap3\n      swap2\n      pop\n      pop\n      jump\t// out\n        /* \"#utility.yul\":2038:2154   */\n    tag_139:\n        /* \"#utility.yul\":2108:2129   */\n      tag_206\n        /* \"#utility.yul\":2123:2128   */\n      dup2\n        /* \"#utility.yul\":2108:2129   */\n      tag_135\n      jump\t// in\n    tag_206:\n        /* \"#utility.yul\":2101:2106   */\n      dup2\n        /* \"#utility.yul\":2098:2130   */\n      eq\n        /* \"#utility.yul\":2088:2148   */\n      tag_207\n      jumpi\n        /* \"#utility.yul\":2144:2145   */\n      0x00\n        /* \"#utility.yul\":2141:2142   */\n      dup1\n        /* \"#utility.yul\":2134:2146   */\n      revert\n        /* \"#utility.yul\":2088:2148   */\n    tag_207:\n        /* \"#utility.yul\":2038:2154   */\n      pop\n      jump\t// out\n        /* \"#utility.yul\":2160:2293   */\n    tag_140:\n        /* \"#utility.yul\":2203:2208   */\n      0x00\n        /* \"#utility.yul\":2241:2247   */\n      dup2\n        /* \"#utility.yul\":2228:2248   */\n      calldataload\n        /* \"#utility.yul\":2219:2248   */\n      swap1\n      pop\n        /* \"#utility.yul\":2257:2287   */\n      tag_209\n        /* \"#utility.yul\":2281:2286   */\n      dup2\n        /* \"#utility.yul\":2257:2287   */\n      tag_139\n      jump\t// in\n    tag_209:\n        /* \"#utility.yul\":2160:2293   */\n      swap3\n      swap2\n      pop\n      pop\n      jump\t// out\n        /* \"#utility.yul\":2299:2767   */\n    tag_35:\n        /* \"#utility.yul\":2364:2370   */\n      0x00\n        /* \"#utility.yul\":2372:2378   */\n      dup1\n        /* \"#utility.yul\":2421:2423   */\n      0x40\n        /* \"#utility.yul\":2409:2418   */\n      dup4\n        /* \"#utility.yul\":2400:2407   */\n      dup6\n        /* \"#utility.yul\":2396:2419   */\n      sub\n        /* \"#utility.yul\":2392:2424   */\n      slt\n        /* \"#utility.yul\":2389:2508   */\n      iszero\n      tag_211\n      jumpi\n        /* \"#utility.yul\":2427:2506   */\n      tag_212\n      tag_129\n      jump\t// in\n    tag_212:\n        /* \"#utility.yul\":2389:2508   */\n    tag_211:\n        /* \"#utility.yul\":2547:2548   */\n      0x00\n        /* \"#utility.yul\":2572:2625   */\n      tag_213\n        /* \"#utility.yul\":2617:2624   */\n      dup6\n        /* \"#utility.yul\":2608:2614   */\n      dup3\n        /* \"#utility.yul\":2597:2606   */\n      dup7\n        /* \"#utility.yul\":2593:2615   */\n      add\n        /* \"#utility.yul\":2572:2625   */\n      tag_134\n      jump\t// in\n    tag_213:\n        /* \"#utility.yul\":2562:2625   */\n      swap3\n      pop\n        /* \"#utility.yul\":2518:2635   */\n      pop\n        /* \"#utility.yul\":2674:2676   */\n      0x20\n        /* \"#utility.yul\":2700:2750   */\n      tag_214\n        /* \"#utility.yul\":2742:2749   */\n      dup6\n        /* \"#utility.yul\":2733:2739   */\n      dup3\n        /* \"#utility.yul\":2722:2731   */\n      dup7\n        /* \"#utility.yul\":2718:2740   */\n      add\n        /* \"#utility.yul\":2700:2750   */\n      tag_140\n      jump\t// in\n    tag_214:\n        /* \"#utility.yul\":2690:2750   */\n      swap2\n      pop\n        /* \"#utility.yul\":2645:2760   */\n      pop\n        /* \"#utility.yul\":2299:2767   */\n      swap3\n      pop\n      swap3\n      swap1\n      pop\n      jump\t// out\n        /* \"#utility.yul\":2773:2895   */\n    tag_141:\n        /* \"#utility.yul\":2846:2870   */\n      tag_216\n        /* \"#utility.yul\":2864:2869   */\n      dup2\n        /* \"#utility.yul\":2846:2870   */\n      tag_137\n      jump\t// in\n    tag_216:\n        /* \"#utility.yul\":2839:2844   */\n      dup2\n        /* \"#utility.yul\":2836:2871   */\n      eq\n        /* \"#utility.yul\":2826:2889   */\n      tag_217\n      jumpi\n        /* \"#utility.yul\":2885:2886   */\n      0x00\n        /* \"#utility.yul\":2882:2883   */\n      dup1\n        /* \"#utility.yul\":2875:2887   */\n      revert\n        /* \"#utility.yul\":2826:2889   */\n    tag_217:\n        /* \"#utility.yul\":2773:2895   */\n      pop\n      jump\t// out\n        /* \"#utility.yul\":2901:3040   */\n    tag_142:\n        /* \"#utility.yul\":2947:2952   */\n      0x00\n        /* \"#utility.yul\":2985:2991   */\n      dup2\n        /* \"#utility.yul\":2972:2992   */\n      calldataload\n        /* \"#utility.yul\":2963:2992   */\n      swap1\n      pop\n        /* \"#utility.yul\":3001:3034   */\n      tag_219\n        /* \"#utility.yul\":3028:3033   */\n      dup2\n        /* \"#utility.yul\":3001:3034   */\n      tag_141\n      jump\t// in\n    tag_219:\n        /* \"#utility.yul\":2901:3040   */\n      swap3\n      swap2\n      pop\n      pop\n      jump\t// out\n        /* \"#utility.yul\":3046:3520   */\n    tag_40:\n        /* \"#utility.yul\":3114:3120   */\n      0x00\n        /* \"#utility.yul\":3122:3128   */\n      dup1\n        /* \"#utility.yul\":3171:3173   */\n      0x40\n        /* \"#utility.yul\":3159:3168   */\n      dup4\n        /* \"#utility.yul\":3150:3157   */\n      dup6\n        /* \"#utility.yul\":3146:3169   */\n      sub\n        /* \"#utility.yul\":3142:3174   */\n      slt\n        /* \"#utility.yul\":3139:3258   */\n      iszero\n      tag_221\n      jumpi\n        /* \"#utility.yul\":3177:3256   */\n      tag_222\n      tag_129\n      jump\t// in\n    tag_222:\n        /* \"#utility.yul\":3139:3258   */\n    tag_221:\n        /* \"#utility.yul\":3297:3298   */\n      0x00\n        /* \"#utility.yul\":3322:3375   */\n      tag_223\n        /* \"#utility.yul\":3367:3374   */\n      dup6\n        /* \"#utility.yul\":3358:3364   */\n      dup3\n        /* \"#utility.yul\":3347:3356   */\n      dup7\n        /* \"#utility.yul\":3343:3365   */\n      add\n        /* \"#utility.yul\":3322:3375   */\n      tag_134\n      jump\t// in\n    tag_223:\n        /* \"#utility.yul\":3312:3375   */\n      swap3\n      pop\n        /* \"#utility.yul\":3268:3385   */\n      pop\n        /* \"#utility.yul\":3424:3426   */\n      0x20\n        /* \"#utility.yul\":3450:3503   */\n      tag_224\n        /* \"#utility.yul\":3495:3502   */\n      dup6\n        /* \"#utility.yul\":3486:3492   */\n      dup3\n        /* \"#utility.yul\":3475:3484   */\n      dup7\n        /* \"#utility.yul\":3471:3493   */\n      add\n        /* \"#utility.yul\":3450:3503   */\n      tag_142\n      jump\t// in\n    tag_224:\n        /* \"#utility.yul\":3440:3503   */\n      swap2\n      pop\n        /* \"#utility.yul\":3395:3513   */\n      pop\n        /* \"#utility.yul\":3046:3520   */\n      swap3\n      pop\n      swap3\n      swap1\n      pop\n      jump\t// out\n        /* \"#utility.yul\":3526:3630   */\n    tag_143:\n        /* \"#utility.yul\":3571:3578   */\n      0x00\n        /* \"#utility.yul\":3600:3624   */\n      tag_226\n        /* \"#utility.yul\":3618:3623   */\n      dup3\n        /* \"#utility.yul\":3600:3624   */\n      tag_131\n      jump\t// in\n    tag_226:\n        /* \"#utility.yul\":3589:3624   */\n      swap1\n      pop\n        /* \"#utility.yul\":3526:3630   */\n      swap2\n      swap1\n      pop\n      jump\t// out\n        /* \"#utility.yul\":3636:3778   */\n    tag_144:\n        /* \"#utility.yul\":3739:3771   */\n      tag_228\n        /* \"#utility.yul\":3765:3770   */\n      dup2\n        /* \"#utility.yul\":3739:3771   */\n      tag_143\n      jump\t// in\n    tag_228:\n        /* \"#utility.yul\":3734:3737   */\n      dup3\n        /* \"#utility.yul\":3727:3772   */\n      mstore\n        /* \"#utility.yul\":3636:3778   */\n      pop\n      pop\n      jump\t// out\n        /* \"#utility.yul\":3784:4038   */\n    tag_56:\n        /* \"#utility.yul\":3893:3897   */\n      0x00\n        /* \"#utility.yul\":3931:3933   */\n      0x20\n        /* \"#utility.yul\":3920:3929   */\n      dup3\n        /* \"#utility.yul\":3916:3934   */\n      add\n        /* \"#utility.yul\":3908:3934   */\n      swap1\n      pop\n        /* \"#utility.yul\":3944:4031   */\n      tag_230\n        /* \"#utility.yul\":4028:4029   */\n      0x00\n        /* \"#utility.yul\":4017:4026   */\n      dup4\n        /* \"#utility.yul\":4013:4030   */\n      add\n        /* \"#utility.yul\":4004:4010   */\n      dup5\n        /* \"#utility.yul\":3944:4031   */\n      tag_144\n      jump\t// in\n    tag_230:\n        /* \"#utility.yul\":3784:4038   */\n      swap3\n      swap2\n      pop\n      pop\n      jump\t// out\n        /* \"#utility.yul\":4044:4182   */\n    tag_145:\n        /* \"#utility.yul\":4125:4157   */\n      tag_232\n        /* \"#utility.yul\":4151:4156   */\n      dup2\n        /* \"#utility.yul\":4125:4157   */\n      tag_143\n      jump\t// in\n    tag_232:\n        /* \"#utility.yul\":4118:4123   */\n      dup2\n        /* \"#utility.yul\":4115:4158   */\n      eq\n        /* \"#utility.yul\":4105:4176   */\n      tag_233\n      jumpi\n        /* \"#utility.yul\":4172:4173   */\n      0x00\n        /* \"#utility.yul\":4169:4170   */\n      dup1\n        /* \"#utility.yul\":4162:4174   */\n      revert\n        /* \"#utility.yul\":4105:4176   */\n    tag_233:\n        /* \"#utility.yul\":4044:4182   */\n      pop\n      jump\t// out\n        /* \"#utility.yul\":4188:4343   */\n    tag_146:\n        /* \"#utility.yul\":4242:4247   */\n      0x00\n        /* \"#utility.yul\":4280:4286   */\n      dup2\n        /* \"#utility.yul\":4267:4287   */\n      calldataload\n        /* \"#utility.yul\":4258:4287   */\n      swap1\n      pop\n        /* \"#utility.yul\":4296:4337   */\n      tag_235\n        /* \"#utility.yul\":4331:4336   */\n      dup2\n        /* \"#utility.yul\":4296:4337   */\n      tag_145\n      jump\t// in\n    tag_235:\n        /* \"#utility.yul\":4188:4343   */\n      swap3\n      swap2\n      pop\n      pop\n      jump\t// out\n        /* \"#utility.yul\":4349:4694   */\n    tag_64:\n        /* \"#utility.yul\":4416:4422   */\n      0x00\n        /* \"#utility.yul\":4465:4467   */\n      0x20\n        /* \"#utility.yul\":4453:4462   */\n      dup3\n        /* \"#utility.yul\":4444:4451   */\n      dup5\n        /* \"#utility.yul\":4440:4463   */\n      sub\n        /* \"#utility.yul\":4436:4468   */\n      slt\n        /* \"#utility.yul\":4433:4552   */\n      iszero\n      tag_237\n      jumpi\n        /* \"#utility.yul\":4471:4550   */\n      tag_238\n      tag_129\n      jump\t// in\n    tag_238:\n        /* \"#utility.yul\":4433:4552   */\n    tag_237:\n        /* \"#utility.yul\":4591:4592   */\n      0x00\n        /* \"#utility.yul\":4616:4677   */\n      tag_239\n        /* \"#utility.yul\":4669:4676   */\n      dup5\n        /* \"#utility.yul\":4660:4666   */\n      dup3\n        /* \"#utility.yul\":4649:4658   */\n      dup6\n        /* \"#utility.yul\":4645:4667   */\n      add\n        /* \"#utility.yul\":4616:4677   */\n      tag_146\n      jump\t// in\n    tag_239:\n        /* \"#utility.yul\":4606:4677   */\n      swap2\n      pop\n        /* \"#utility.yul\":4562:4687   */\n      pop\n        /* \"#utility.yul\":4349:4694   */\n      swap3\n      swap2\n      pop\n      pop\n      jump\t// out\n        /* \"#utility.yul\":4700:4817   */\n    tag_147:\n        /* \"#utility.yul\":4809:4810   */\n      0x00\n        /* \"#utility.yul\":4806:4807   */\n      dup1\n        /* \"#utility.yul\":4799:4811   */\n      revert\n        /* \"#utility.yul\":4823:4940   */\n    tag_148:\n        /* \"#utility.yul\":4932:4933   */\n      0x00\n        /* \"#utility.yul\":4929:4930   */\n      dup1\n        /* \"#utility.yul\":4922:4934   */\n      revert\n        /* \"#utility.yul\":4946:5048   */\n    tag_149:\n        /* \"#utility.yul\":4987:4993   */\n      0x00\n        /* \"#utility.yul\":5038:5040   */\n      0x1f\n        /* \"#utility.yul\":5034:5041   */\n      not\n        /* \"#utility.yul\":5029:5031   */\n      0x1f\n        /* \"#utility.yul\":5022:5027   */\n      dup4\n        /* \"#utility.yul\":5018:5032   */\n      add\n        /* \"#utility.yul\":5014:5042   */\n      and\n        /* \"#utility.yul\":5004:5042   */\n      swap1\n      pop\n        /* \"#utility.yul\":4946:5048   */\n      swap2\n      swap1\n      pop\n      jump\t// out\n        /* \"#utility.yul\":5054:5234   */\n    tag_150:\n        /* \"#utility.yul\":5102:5179   */\n      0x4e487b7100000000000000000000000000000000000000000000000000000000\n        /* \"#utility.yul\":5099:5100   */\n      0x00\n        /* \"#utility.yul\":5092:5180   */\n      mstore\n        /* \"#utility.yul\":5199:5203   */\n      0x41\n        /* \"#utility.yul\":5196:5197   */\n      0x04\n        /* \"#utility.yul\":5189:5204   */\n      mstore\n        /* \"#utility.yul\":5223:5227   */\n      0x24\n        /* \"#utility.yul\":5220:5221   */\n      0x00\n        /* \"#utility.yul\":5213:5228   */\n      revert\n        /* \"#utility.yul\":5240:5521   */\n    tag_151:\n        /* \"#utility.yul\":5323:5350   */\n      tag_245\n        /* \"#utility.yul\":5345:5349   */\n      dup3\n        /* \"#utility.yul\":5323:5350   */\n      tag_149\n      jump\t// in\n    tag_245:\n        /* \"#utility.yul\":5315:5321   */\n      dup2\n        /* \"#utility.yul\":5311:5351   */\n      add\n        /* \"#utility.yul\":5453:5459   */\n      dup2\n        /* \"#utility.yul\":5441:5451   */\n      dup2\n        /* \"#utility.yul\":5438:5460   */\n      lt\n        /* \"#utility.yul\":5417:5435   */\n      0xffffffffffffffff\n        /* \"#utility.yul\":5405:5415   */\n      dup3\n        /* \"#utility.yul\":5402:5436   */\n      gt\n        /* \"#utility.yul\":5399:5461   */\n      or\n        /* \"#utility.yul\":5396:5484   */\n      iszero\n      tag_246\n      jumpi\n        /* \"#utility.yul\":5464:5482   */\n      tag_247\n      tag_150\n      jump\t// in\n    tag_247:\n        /* \"#utility.yul\":5396:5484   */\n    tag_246:\n        /* \"#utility.yul\":5504:5514   */\n      dup1\n        /* \"#utility.yul\":5500:5502   */\n      0x40\n        /* \"#utility.yul\":5493:5515   */\n      mstore\n        /* \"#utility.yul\":5283:5521   */\n      pop\n        /* \"#utility.yul\":5240:5521   */\n      pop\n      pop\n      jump\t// out\n        /* \"#utility.yul\":5527:5656   */\n    tag_152:\n        /* \"#utility.yul\":5561:5567   */\n      0x00\n        /* \"#utility.yul\":5588:5608   */\n      tag_249\n      tag_128\n      jump\t// in\n    tag_249:\n        /* \"#utility.yul\":5578:5608   */\n      swap1\n      pop\n        /* \"#utility.yul\":5617:5650   */\n      tag_250\n        /* \"#utility.yul\":5645:5649   */\n      dup3\n        /* \"#utility.yul\":5637:5643   */\n      dup3\n        /* \"#utility.yul\":5617:5650   */\n      tag_151\n      jump\t// in\n    tag_250:\n        /* \"#utility.yul\":5527:5656   */\n      swap2\n      swap1\n      pop\n      jump\t// out\n        /* \"#utility.yul\":5662:5969   */\n    tag_153:\n        /* \"#utility.yul\":5723:5727   */\n      0x00\n        /* \"#utility.yul\":5813:5831   */\n      0xffffffffffffffff\n        /* \"#utility.yul\":5805:5811   */\n      dup3\n        /* \"#utility.yul\":5802:5832   */\n      gt\n        /* \"#utility.yul\":5799:5855   */\n      iszero\n      tag_252\n      jumpi\n        /* \"#utility.yul\":5835:5853   */\n      tag_253\n      tag_150\n      jump\t// in\n    tag_253:\n        /* \"#utility.yul\":5799:5855   */\n    tag_252:\n        /* \"#utility.yul\":5873:5902   */\n      tag_254\n        /* \"#utility.yul\":5895:5901   */\n      dup3\n        /* \"#utility.yul\":5873:5902   */\n      tag_149\n      jump\t// in\n    tag_254:\n        /* \"#utility.yul\":5865:5902   */\n      swap1\n      pop\n        /* \"#utility.yul\":5957:5961   */\n      0x20\n        /* \"#utility.yul\":5951:5955   */\n      dup2\n        /* \"#utility.yul\":5947:5962   */\n      add\n        /* \"#utility.yul\":5939:5962   */\n      swap1\n      pop\n        /* \"#utility.yul\":5662:5969   */\n      swap2\n      swap1\n      pop\n      jump\t// out\n        /* \"#utility.yul\":5975:6129   */\n    tag_154:\n        /* \"#utility.yul\":6059:6065   */\n      dup3\n        /* \"#utility.yul\":6054:6057   */\n      dup2\n        /* \"#utility.yul\":6049:6052   */\n      dup4\n        /* \"#utility.yul\":6036:6066   */\n      calldatacopy\n        /* \"#utility.yul\":6121:6122   */\n      0x00\n        /* \"#utility.yul\":6112:6118   */\n      dup4\n        /* \"#utility.yul\":6107:6110   */\n      dup4\n        /* \"#utility.yul\":6103:6119   */\n      add\n        /* \"#utility.yul\":6096:6123   */\n      mstore\n        /* \"#utility.yul\":5975:6129   */\n      pop\n      pop\n      pop\n      jump\t// out\n        /* \"#utility.yul\":6135:6545   */\n    tag_155:\n        /* \"#utility.yul\":6212:6217   */\n      0x00\n        /* \"#utility.yul\":6237:6302   */\n      tag_257\n        /* \"#utility.yul\":6253:6301   */\n      tag_258\n        /* \"#utility.yul\":6294:6300   */\n      dup5\n        /* \"#utility.yul\":6253:6301   */\n      tag_153\n      jump\t// in\n    tag_258:\n        /* \"#utility.yul\":6237:6302   */\n      tag_152\n      jump\t// in\n    tag_257:\n        /* \"#utility.yul\":6228:6302   */\n      swap1\n      pop\n        /* \"#utility.yul\":6325:6331   */\n      dup3\n        /* \"#utility.yul\":6318:6323   */\n      dup2\n        /* \"#utility.yul\":6311:6332   */\n      mstore\n        /* \"#utility.yul\":6363:6367   */\n      0x20\n        /* \"#utility.yul\":6356:6361   */\n      dup2\n        /* \"#utility.yul\":6352:6368   */\n      add\n        /* \"#utility.yul\":6401:6404   */\n      dup5\n        /* \"#utility.yul\":6392:6398   */\n      dup5\n        /* \"#utility.yul\":6387:6390   */\n      dup5\n        /* \"#utility.yul\":6383:6399   */\n      add\n        /* \"#utility.yul\":6380:6405   */\n      gt\n        /* \"#utility.yul\":6377:6489   */\n      iszero\n      tag_259\n      jumpi\n        /* \"#utility.yul\":6408:6487   */\n      tag_260\n      tag_148\n      jump\t// in\n    tag_260:\n        /* \"#utility.yul\":6377:6489   */\n    tag_259:\n        /* \"#utility.yul\":6498:6539   */\n      tag_261\n        /* \"#utility.yul\":6532:6538   */\n      dup5\n        /* \"#utility.yul\":6527:6530   */\n      dup3\n        /* \"#utility.yul\":6522:6525   */\n      dup6\n        /* \"#utility.yul\":6498:6539   */\n      tag_154\n      jump\t// in\n    tag_261:\n        /* \"#utility.yul\":6218:6545   */\n      pop\n        /* \"#utility.yul\":6135:6545   */\n      swap4\n      swap3\n      pop\n      pop\n      pop\n      jump\t// out\n        /* \"#utility.yul\":6564:6902   */\n    tag_156:\n        /* \"#utility.yul\":6619:6624   */\n      0x00\n        /* \"#utility.yul\":6668:6671   */\n      dup3\n        /* \"#utility.yul\":6661:6665   */\n      0x1f\n        /* \"#utility.yul\":6653:6659   */\n      dup4\n        /* \"#utility.yul\":6649:6666   */\n      add\n        /* \"#utility.yul\":6645:6672   */\n      slt\n        /* \"#utility.yul\":6635:6757   */\n      tag_263\n      jumpi\n        /* \"#utility.yul\":6676:6755   */\n      tag_264\n      tag_147\n      jump\t// in\n    tag_264:\n        /* \"#utility.yul\":6635:6757   */\n    tag_263:\n        /* \"#utility.yul\":6793:6799   */\n      dup2\n        /* \"#utility.yul\":6780:6800   */\n      calldataload\n        /* \"#utility.yul\":6818:6896   */\n      tag_265\n        /* \"#utility.yul\":6892:6895   */\n      dup5\n        /* \"#utility.yul\":6884:6890   */\n      dup3\n        /* \"#utility.yul\":6877:6881   */\n      0x20\n        /* \"#utility.yul\":6869:6875   */\n      dup7\n        /* \"#utility.yul\":6865:6882   */\n      add\n        /* \"#utility.yul\":6818:6896   */\n      tag_155\n      jump\t// in\n    tag_265:\n        /* \"#utility.yul\":6809:6896   */\n      swap2\n      pop\n        /* \"#utility.yul\":6625:6902   */\n      pop\n        /* \"#utility.yul\":6564:6902   */\n      swap3\n      swap2\n      pop\n      pop\n      jump\t// out\n        /* \"#utility.yul\":6908:7721   */\n    tag_74:\n        /* \"#utility.yul\":7002:7008   */\n      0x00\n        /* \"#utility.yul\":7010:7016   */\n      dup1\n        /* \"#utility.yul\":7018:7024   */\n      0x00\n        /* \"#utility.yul\":7067:7069   */\n      0x60\n        /* \"#utility.yul\":7055:7064   */\n      dup5\n        /* \"#utility.yul\":7046:7053   */\n      dup7\n        /* \"#utility.yul\":7042:7065   */\n      sub\n        /* \"#utility.yul\":7038:7070   */\n      slt\n        /* \"#utility.yul\":7035:7154   */\n      iszero\n      tag_267\n      jumpi\n        /* \"#utility.yul\":7073:7152   */\n      tag_268\n      tag_129\n      jump\t// in\n    tag_268:\n        /* \"#utility.yul\":7035:7154   */\n    tag_267:\n        /* \"#utility.yul\":7193:7194   */\n      0x00\n        /* \"#utility.yul\":7218:7279   */\n      tag_269\n        /* \"#utility.yul\":7271:7278   */\n      dup7\n        /* \"#utility.yul\":7262:7268   */\n      dup3\n        /* \"#utility.yul\":7251:7260   */\n      dup8\n        /* \"#utility.yul\":7247:7269   */\n      add\n        /* \"#utility.yul\":7218:7279   */\n      tag_146\n      jump\t// in\n    tag_269:\n        /* \"#utility.yul\":7208:7279   */\n      swap4\n      pop\n        /* \"#utility.yul\":7164:7289   */\n      pop\n        /* \"#utility.yul\":7328:7330   */\n      0x20\n        /* \"#utility.yul\":7354:7407   */\n      tag_270\n        /* \"#utility.yul\":7399:7406   */\n      dup7\n        /* \"#utility.yul\":7390:7396   */\n      dup3\n        /* \"#utility.yul\":7379:7388   */\n      dup8\n        /* \"#utility.yul\":7375:7397   */\n      add\n        /* \"#utility.yul\":7354:7407   */\n      tag_142\n      jump\t// in\n    tag_270:\n        /* \"#utility.yul\":7344:7407   */\n      swap3\n      pop\n        /* \"#utility.yul\":7299:7417   */\n      pop\n        /* \"#utility.yul\":7484:7486   */\n      0x40\n        /* \"#utility.yul\":7473:7482   */\n      dup5\n        /* \"#utility.yul\":7469:7487   */\n      add\n        /* \"#utility.yul\":7456:7488   */\n      calldataload\n        /* \"#utility.yul\":7515:7533   */\n      0xffffffffffffffff\n        /* \"#utility.yul\":7507:7513   */\n      dup2\n        /* \"#utility.yul\":7504:7534   */\n      gt\n        /* \"#utility.yul\":7501:7618   */\n      iszero\n      tag_271\n      jumpi\n        /* \"#utility.yul\":7537:7616   */\n      tag_272\n      tag_130\n      jump\t// in\n    tag_272:\n        /* \"#utility.yul\":7501:7618   */\n    tag_271:\n        /* \"#utility.yul\":7642:7704   */\n      tag_273\n        /* \"#utility.yul\":7696:7703   */\n      dup7\n        /* \"#utility.yul\":7687:7693   */\n      dup3\n        /* \"#utility.yul\":7676:7685   */\n      dup8\n        /* \"#utility.yul\":7672:7694   */\n      add\n        /* \"#utility.yul\":7642:7704   */\n      tag_156\n      jump\t// in\n    tag_273:\n        /* \"#utility.yul\":7632:7704   */\n      swap2\n      pop\n        /* \"#utility.yul\":7427:7714   */\n      pop\n        /* \"#utility.yul\":6908:7721   */\n      swap3\n      pop\n      swap3\n      pop\n      swap3\n      jump\t// out\n        /* \"#utility.yul\":7727:7825   */\n    tag_157:\n        /* \"#utility.yul\":7778:7784   */\n      0x00\n        /* \"#utility.yul\":7812:7817   */\n      dup2\n        /* \"#utility.yul\":7806:7818   */\n      mload\n        /* \"#utility.yul\":7796:7818   */\n      swap1\n      pop\n        /* \"#utility.yul\":7727:7825   */\n      swap2\n      swap1\n      pop\n      jump\t// out\n        /* \"#utility.yul\":7831:7999   */\n    tag_158:\n        /* \"#utility.yul\":7914:7925   */\n      0x00\n        /* \"#utility.yul\":7948:7954   */\n      dup3\n        /* \"#utility.yul\":7943:7946   */\n      dup3\n        /* \"#utility.yul\":7936:7955   */\n      mstore\n        /* \"#utility.yul\":7988:7992   */\n      0x20\n        /* \"#utility.yul\":7983:7986   */\n      dup3\n        /* \"#utility.yul\":7979:7993   */\n      add\n        /* \"#utility.yul\":7964:7993   */\n      swap1\n      pop\n        /* \"#utility.yul\":7831:7999   */\n      swap3\n      swap2\n      pop\n      pop\n      jump\t// out\n        /* \"#utility.yul\":8005:8312   */\n    tag_159:\n        /* \"#utility.yul\":8073:8074   */\n      0x00\n        /* \"#utility.yul\":8083:8196   */\n    tag_277:\n        /* \"#utility.yul\":8097:8103   */\n      dup4\n        /* \"#utility.yul\":8094:8095   */\n      dup2\n        /* \"#utility.yul\":8091:8104   */\n      lt\n        /* \"#utility.yul\":8083:8196   */\n      iszero\n      tag_279\n      jumpi\n        /* \"#utility.yul\":8182:8183   */\n      dup1\n        /* \"#utility.yul\":8177:8180   */\n      dup3\n        /* \"#utility.yul\":8173:8184   */\n      add\n        /* \"#utility.yul\":8167:8185   */\n      mload\n        /* \"#utility.yul\":8163:8164   */\n      dup2\n        /* \"#utility.yul\":8158:8161   */\n      dup5\n        /* \"#utility.yul\":8154:8165   */\n      add\n        /* \"#utility.yul\":8147:8186   */\n      mstore\n        /* \"#utility.yul\":8119:8121   */\n      0x20\n        /* \"#utility.yul\":8116:8117   */\n      dup2\n        /* \"#utility.yul\":8112:8122   */\n      add\n        /* \"#utility.yul\":8107:8122   */\n      swap1\n      pop\n        /* \"#utility.yul\":8083:8196   */\n      jump(tag_277)\n    tag_279:\n        /* \"#utility.yul\":8214:8220   */\n      dup4\n        /* \"#utility.yul\":8211:8212   */\n      dup2\n        /* \"#utility.yul\":8208:8221   */\n      gt\n        /* \"#utility.yul\":8205:8306   */\n      iszero\n      tag_280\n      jumpi\n        /* \"#utility.yul\":8294:8295   */\n      0x00\n        /* \"#utility.yul\":8285:8291   */\n      dup5\n        /* \"#utility.yul\":8280:8283   */\n      dup5\n        /* \"#utility.yul\":8276:8292   */\n      add\n        /* \"#utility.yul\":8269:8296   */\n      mstore\n        /* \"#utility.yul\":8205:8306   */\n    tag_280:\n        /* \"#utility.yul\":8054:8312   */\n      pop\n        /* \"#utility.yul\":8005:8312   */\n      pop\n      pop\n      pop\n      jump\t// out\n        /* \"#utility.yul\":8318:8678   */\n    tag_160:\n        /* \"#utility.yul\":8404:8407   */\n      0x00\n        /* \"#utility.yul\":8432:8470   */\n      tag_282\n        /* \"#utility.yul\":8464:8469   */\n      dup3\n        /* \"#utility.yul\":8432:8470   */\n      tag_157\n      jump\t// in\n    tag_282:\n        /* \"#utility.yul\":8486:8556   */\n      tag_283\n        /* \"#utility.yul\":8549:8555   */\n      dup2\n        /* \"#utility.yul\":8544:8547   */\n      dup6\n        /* \"#utility.yul\":8486:8556   */\n      tag_158\n      jump\t// in\n    tag_283:\n        /* \"#utility.yul\":8479:8556   */\n      swap4\n      pop\n        /* \"#utility.yul\":8565:8617   */\n      tag_284\n        /* \"#utility.yul\":8610:8616   */\n      dup2\n        /* \"#utility.yul\":8605:8608   */\n      dup6\n        /* \"#utility.yul\":8598:8602   */\n      0x20\n        /* \"#utility.yul\":8591:8596   */\n      dup7\n        /* \"#utility.yul\":8587:8603   */\n      add\n        /* \"#utility.yul\":8565:8617   */\n      tag_159\n      jump\t// in\n    tag_284:\n        /* \"#utility.yul\":8642:8671   */\n      tag_285\n        /* \"#utility.yul\":8664:8670   */\n      dup2\n        /* \"#utility.yul\":8642:8671   */\n      tag_149\n      jump\t// in\n    tag_285:\n        /* \"#utility.yul\":8637:8640   */\n      dup5\n        /* \"#utility.yul\":8633:8672   */\n      add\n        /* \"#utility.yul\":8626:8672   */\n      swap2\n      pop\n        /* \"#utility.yul\":8408:8678   */\n      pop\n        /* \"#utility.yul\":8318:8678   */\n      swap3\n      swap2\n      pop\n      pop\n      jump\t// out\n        /* \"#utility.yul\":8684:8993   */\n    tag_77:\n        /* \"#utility.yul\":8795:8799   */\n      0x00\n        /* \"#utility.yul\":8833:8835   */\n      0x20\n        /* \"#utility.yul\":8822:8831   */\n      dup3\n        /* \"#utility.yul\":8818:8836   */\n      add\n        /* \"#utility.yul\":8810:8836   */\n      swap1\n      pop\n        /* \"#utility.yul\":8882:8891   */\n      dup2\n        /* \"#utility.yul\":8876:8880   */\n      dup2\n        /* \"#utility.yul\":8872:8892   */\n      sub\n        /* \"#utility.yul\":8868:8869   */\n      0x00\n        /* \"#utility.yul\":8857:8866   */\n      dup4\n        /* \"#utility.yul\":8853:8870   */\n      add\n        /* \"#utility.yul\":8846:8893   */\n      mstore\n        /* \"#utility.yul\":8910:8986   */\n      tag_287\n        /* \"#utility.yul\":8981:8985   */\n      dup2\n        /* \"#utility.yul\":8972:8978   */\n      dup5\n        /* \"#utility.yul\":8910:8986   */\n      tag_160\n      jump\t// in\n    tag_287:\n        /* \"#utility.yul\":8902:8986   */\n      swap1\n      pop\n        /* \"#utility.yul\":8684:8993   */\n      swap3\n      swap2\n      pop\n      pop\n      jump\t// out\n        /* \"#utility.yul\":8999:9473   */\n    tag_81:\n        /* \"#utility.yul\":9067:9073   */\n      0x00\n        /* \"#utility.yul\":9075:9081   */\n      dup1\n        /* \"#utility.yul\":9124:9126   */\n      0x40\n        /* \"#utility.yul\":9112:9121   */\n      dup4\n        /* \"#utility.yul\":9103:9110   */\n      dup6\n        /* \"#utility.yul\":9099:9122   */\n      sub\n        /* \"#utility.yul\":9095:9127   */\n      slt\n        /* \"#utility.yul\":9092:9211   */\n      iszero\n      tag_289\n      jumpi\n        /* \"#utility.yul\":9130:9209   */\n      tag_290\n      tag_129\n      jump\t// in\n    tag_290:\n        /* \"#utility.yul\":9092:9211   */\n    tag_289:\n        /* \"#utility.yul\":9250:9251   */\n      0x00\n        /* \"#utility.yul\":9275:9328   */\n      tag_291\n        /* \"#utility.yul\":9320:9327   */\n      dup6\n        /* \"#utility.yul\":9311:9317   */\n      dup3\n        /* \"#utility.yul\":9300:9309   */\n      dup7\n        /* \"#utility.yul\":9296:9318   */\n      add\n        /* \"#utility.yul\":9275:9328   */\n      tag_134\n      jump\t// in\n    tag_291:\n        /* \"#utility.yul\":9265:9328   */\n      swap3\n      pop\n        /* \"#utility.yul\":9221:9338   */\n      pop\n        /* \"#utility.yul\":9377:9379   */\n      0x20\n        /* \"#utility.yul\":9403:9456   */\n      tag_292\n        /* \"#utility.yul\":9448:9455   */\n      dup6\n        /* \"#utility.yul\":9439:9445   */\n      dup3\n        /* \"#utility.yul\":9428:9437   */\n      dup7\n        /* \"#utility.yul\":9424:9446   */\n      add\n        /* \"#utility.yul\":9403:9456   */\n      tag_134\n      jump\t// in\n    tag_292:\n        /* \"#utility.yul\":9393:9456   */\n      swap2\n      pop\n        /* \"#utility.yul\":9348:9466   */\n      pop\n        /* \"#utility.yul\":8999:9473   */\n      swap3\n      pop\n      swap3\n      swap1\n      pop\n      jump\t// out\n        /* \"#utility.yul\":9479:9648   */\n    tag_161:\n        /* \"#utility.yul\":9563:9574   */\n      0x00\n        /* \"#utility.yul\":9597:9603   */\n      dup3\n        /* \"#utility.yul\":9592:9595   */\n      dup3\n        /* \"#utility.yul\":9585:9604   */\n      mstore\n        /* \"#utility.yul\":9637:9641   */\n      0x20\n        /* \"#utility.yul\":9632:9635   */\n      dup3\n        /* \"#utility.yul\":9628:9642   */\n      add\n        /* \"#utility.yul\":9613:9642   */\n      swap1\n      pop\n        /* \"#utility.yul\":9479:9648   */\n      swap3\n      swap2\n      pop\n      pop\n      jump\t// out\n        /* \"#utility.yul\":9654:9826   */\n    tag_162:\n        /* \"#utility.yul\":9794:9818   */\n      0x596f757220617265206e6f7420746865206f776e657200000000000000000000\n        /* \"#utility.yul\":9790:9791   */\n      0x00\n        /* \"#utility.yul\":9782:9788   */\n      dup3\n        /* \"#utility.yul\":9778:9792   */\n      add\n        /* \"#utility.yul\":9771:9819   */\n      mstore\n        /* \"#utility.yul\":9654:9826   */\n      pop\n      jump\t// out\n        /* \"#utility.yul\":9832:10198   */\n    tag_163:\n        /* \"#utility.yul\":9974:9977   */\n      0x00\n        /* \"#utility.yul\":9995:10062   */\n      tag_296\n        /* \"#utility.yul\":10059:10061   */\n      0x16\n        /* \"#utility.yul\":10054:10057   */\n      dup4\n        /* \"#utility.yul\":9995:10062   */\n      tag_161\n      jump\t// in\n    tag_296:\n        /* \"#utility.yul\":9988:10062   */\n      swap2\n      pop\n        /* \"#utility.yul\":10071:10164   */\n      tag_297\n        /* \"#utility.yul\":10160:10163   */\n      dup3\n        /* \"#utility.yul\":10071:10164   */\n      tag_162\n      jump\t// in\n    tag_297:\n        /* \"#utility.yul\":10189:10191   */\n      0x20\n        /* \"#utility.yul\":10184:10187   */\n      dup3\n        /* \"#utility.yul\":10180:10192   */\n      add\n        /* \"#utility.yul\":10173:10192   */\n      swap1\n      pop\n        /* \"#utility.yul\":9832:10198   */\n      swap2\n      swap1\n      pop\n      jump\t// out\n        /* \"#utility.yul\":10204:10623   */\n    tag_91:\n        /* \"#utility.yul\":10370:10374   */\n      0x00\n        /* \"#utility.yul\":10408:10410   */\n      0x20\n        /* \"#utility.yul\":10397:10406   */\n      dup3\n        /* \"#utility.yul\":10393:10411   */\n      add\n        /* \"#utility.yul\":10385:10411   */\n      swap1\n      pop\n        /* \"#utility.yul\":10457:10466   */\n      dup2\n        /* \"#utility.yul\":10451:10455   */\n      dup2\n        /* \"#utility.yul\":10447:10467   */\n      sub\n        /* \"#utility.yul\":10443:10444   */\n      0x00\n        /* \"#utility.yul\":10432:10441   */\n      dup4\n        /* \"#utility.yul\":10428:10445   */\n      add\n        /* \"#utility.yul\":10421:10468   */\n      mstore\n        /* \"#utility.yul\":10485:10616   */\n      tag_299\n        /* \"#utility.yul\":10611:10615   */\n      dup2\n        /* \"#utility.yul\":10485:10616   */\n      tag_163\n      jump\t// in\n    tag_299:\n        /* \"#utility.yul\":10477:10616   */\n      swap1\n      pop\n        /* \"#utility.yul\":10204:10623   */\n      swap2\n      swap1\n      pop\n      jump\t// out\n        /* \"#utility.yul\":10629:10800   */\n    tag_164:\n        /* \"#utility.yul\":10769:10792   */\n      0x596f7520617265206e6f7420746865206f776e65720000000000000000000000\n        /* \"#utility.yul\":10765:10766   */\n      0x00\n        /* \"#utility.yul\":10757:10763   */\n      dup3\n        /* \"#utility.yul\":10753:10767   */\n      add\n        /* \"#utility.yul\":10746:10793   */\n      mstore\n        /* \"#utility.yul\":10629:10800   */\n      pop\n      jump\t// out\n        /* \"#utility.yul\":10806:11172   */\n    tag_165:\n        /* \"#utility.yul\":10948:10951   */\n      0x00\n        /* \"#utility.yul\":10969:11036   */\n      tag_302\n        /* \"#utility.yul\":11033:11035   */\n      0x15\n        /* \"#utility.yul\":11028:11031   */\n      dup4\n        /* \"#utility.yul\":10969:11036   */\n      tag_161\n      jump\t// in\n    tag_302:\n        /* \"#utility.yul\":10962:11036   */\n      swap2\n      pop\n        /* \"#utility.yul\":11045:11138   */\n      tag_303\n        /* \"#utility.yul\":11134:11137   */\n      dup3\n        /* \"#utility.yul\":11045:11138   */\n      tag_164\n      jump\t// in\n    tag_303:\n        /* \"#utility.yul\":11163:11165   */\n      0x20\n        /* \"#utility.yul\":11158:11161   */\n      dup3\n        /* \"#utility.yul\":11154:11166   */\n      add\n        /* \"#utility.yul\":11147:11166   */\n      swap1\n      pop\n        /* \"#utility.yul\":10806:11172   */\n      swap2\n      swap1\n      pop\n      jump\t// out\n        /* \"#utility.yul\":11178:11597   */\n    tag_95:\n        /* \"#utility.yul\":11344:11348   */\n      0x00\n        /* \"#utility.yul\":11382:11384   */\n      0x20\n        /* \"#utility.yul\":11371:11380   */\n      dup3\n        /* \"#utility.yul\":11367:11385   */\n      add\n        /* \"#utility.yul\":11359:11385   */\n      swap1\n      pop\n        /* \"#utility.yul\":11431:11440   */\n      dup2\n        /* \"#utility.yul\":11425:11429   */\n      dup2\n        /* \"#utility.yul\":11421:11441   */\n      sub\n        /* \"#utility.yul\":11417:11418   */\n      0x00\n        /* \"#utility.yul\":11406:11415   */\n      dup4\n        /* \"#utility.yul\":11402:11419   */\n      add\n        /* \"#utility.yul\":11395:11442   */\n      mstore\n        /* \"#utility.yul\":11459:11590   */\n      tag_305\n        /* \"#utility.yul\":11585:11589   */\n      dup2\n        /* \"#utility.yul\":11459:11590   */\n      tag_165\n      jump\t// in\n    tag_305:\n        /* \"#utility.yul\":11451:11590   */\n      swap1\n      pop\n        /* \"#utility.yul\":11178:11597   */\n      swap2\n      swap1\n      pop\n      jump\t// out\n        /* \"#utility.yul\":11603:11775   */\n    tag_166:\n        /* \"#utility.yul\":11743:11767   */\n      0x596f7520617265206e6f74206120677561726469616e00000000000000000000\n        /* \"#utility.yul\":11739:11740   */\n      0x00\n        /* \"#utility.yul\":11731:11737   */\n      dup3\n        /* \"#utility.yul\":11727:11741   */\n      add\n        /* \"#utility.yul\":11720:11768   */\n      mstore\n        /* \"#utility.yul\":11603:11775   */\n      pop\n      jump\t// out\n        /* \"#utility.yul\":11781:12147   */\n    tag_167:\n        /* \"#utility.yul\":11923:11926   */\n      0x00\n        /* \"#utility.yul\":11944:12011   */\n      tag_308\n        /* \"#utility.yul\":12008:12010   */\n      0x16\n        /* \"#utility.yul\":12003:12006   */\n      dup4\n        /* \"#utility.yul\":11944:12011   */\n      tag_161\n      jump\t// in\n    tag_308:\n        /* \"#utility.yul\":11937:12011   */\n      swap2\n      pop\n        /* \"#utility.yul\":12020:12113   */\n      tag_309\n        /* \"#utility.yul\":12109:12112   */\n      dup3\n        /* \"#utility.yul\":12020:12113   */\n      tag_166\n      jump\t// in\n    tag_309:\n        /* \"#utility.yul\":12138:12140   */\n      0x20\n        /* \"#utility.yul\":12133:12136   */\n      dup3\n        /* \"#utility.yul\":12129:12141   */\n      add\n        /* \"#utility.yul\":12122:12141   */\n      swap1\n      pop\n        /* \"#utility.yul\":11781:12147   */\n      swap2\n      swap1\n      pop\n      jump\t// out\n        /* \"#utility.yul\":12153:12572   */\n    tag_101:\n        /* \"#utility.yul\":12319:12323   */\n      0x00\n        /* \"#utility.yul\":12357:12359   */\n      0x20\n        /* \"#utility.yul\":12346:12355   */\n      dup3\n        /* \"#utility.yul\":12342:12360   */\n      add\n        /* \"#utility.yul\":12334:12360   */\n      swap1\n      pop\n        /* \"#utility.yul\":12406:12415   */\n      dup2\n        /* \"#utility.yul\":12400:12404   */\n      dup2\n        /* \"#utility.yul\":12396:12416   */\n      sub\n        /* \"#utility.yul\":12392:12393   */\n      0x00\n        /* \"#utility.yul\":12381:12390   */\n      dup4\n        /* \"#utility.yul\":12377:12394   */\n      add\n        /* \"#utility.yul\":12370:12417   */\n      mstore\n        /* \"#utility.yul\":12434:12565   */\n      tag_311\n        /* \"#utility.yul\":12560:12564   */\n      dup2\n        /* \"#utility.yul\":12434:12565   */\n      tag_167\n      jump\t// in\n    tag_311:\n        /* \"#utility.yul\":12426:12565   */\n      swap1\n      pop\n        /* \"#utility.yul\":12153:12572   */\n      swap2\n      swap1\n      pop\n      jump\t// out\n        /* \"#utility.yul\":12578:12750   */\n    tag_168:\n        /* \"#utility.yul\":12718:12742   */\n      0x796f75206861766520616c726561647920766f74656400000000000000000000\n        /* \"#utility.yul\":12714:12715   */\n      0x00\n        /* \"#utility.yul\":12706:12712   */\n      dup3\n        /* \"#utility.yul\":12702:12716   */\n      add\n        /* \"#utility.yul\":12695:12743   */\n      mstore\n        /* \"#utility.yul\":12578:12750   */\n      pop\n      jump\t// out\n        /* \"#utility.yul\":12756:13122   */\n    tag_169:\n        /* \"#utility.yul\":12898:12901   */\n      0x00\n        /* \"#utility.yul\":12919:12986   */\n      tag_314\n        /* \"#utility.yul\":12983:12985   */\n      0x16\n        /* \"#utility.yul\":12978:12981   */\n      dup4\n        /* \"#utility.yul\":12919:12986   */\n      tag_161\n      jump\t// in\n    tag_314:\n        /* \"#utility.yul\":12912:12986   */\n      swap2\n      pop\n        /* \"#utility.yul\":12995:13088   */\n      tag_315\n        /* \"#utility.yul\":13084:13087   */\n      dup3\n        /* \"#utility.yul\":12995:13088   */\n      tag_168\n      jump\t// in\n    tag_315:\n        /* \"#utility.yul\":13113:13115   */\n      0x20\n        /* \"#utility.yul\":13108:13111   */\n      dup3\n        /* \"#utility.yul\":13104:13116   */\n      add\n        /* \"#utility.yul\":13097:13116   */\n      swap1\n      pop\n        /* \"#utility.yul\":12756:13122   */\n      swap2\n      swap1\n      pop\n      jump\t// out\n        /* \"#utility.yul\":13128:13547   */\n    tag_104:\n        /* \"#utility.yul\":13294:13298   */\n      0x00\n        /* \"#utility.yul\":13332:13334   */\n      0x20\n        /* \"#utility.yul\":13321:13330   */\n      dup3\n        /* \"#utility.yul\":13317:13335   */\n      add\n        /* \"#utility.yul\":13309:13335   */\n      swap1\n      pop\n        /* \"#utility.yul\":13381:13390   */\n      dup2\n        /* \"#utility.yul\":13375:13379   */\n      dup2\n        /* \"#utility.yul\":13371:13391   */\n      sub\n        /* \"#utility.yul\":13367:13368   */\n      0x00\n        /* \"#utility.yul\":13356:13365   */\n      dup4\n        /* \"#utility.yul\":13352:13369   */\n      add\n        /* \"#utility.yul\":13345:13392   */\n      mstore\n        /* \"#utility.yul\":13409:13540   */\n      tag_317\n        /* \"#utility.yul\":13535:13539   */\n      dup2\n        /* \"#utility.yul\":13409:13540   */\n      tag_169\n      jump\t// in\n    tag_317:\n        /* \"#utility.yul\":13401:13540   */\n      swap1\n      pop\n        /* \"#utility.yul\":13128:13547   */\n      swap2\n      swap1\n      pop\n      jump\t// out\n        /* \"#utility.yul\":13553:13733   */\n    tag_170:\n        /* \"#utility.yul\":13601:13678   */\n      0x4e487b7100000000000000000000000000000000000000000000000000000000\n        /* \"#utility.yul\":13598:13599   */\n      0x00\n        /* \"#utility.yul\":13591:13679   */\n      mstore\n        /* \"#utility.yul\":13698:13702   */\n      0x11\n        /* \"#utility.yul\":13695:13696   */\n      0x04\n        /* \"#utility.yul\":13688:13703   */\n      mstore\n        /* \"#utility.yul\":13722:13726   */\n      0x24\n        /* \"#utility.yul\":13719:13720   */\n      0x00\n        /* \"#utility.yul\":13712:13727   */\n      revert\n        /* \"#utility.yul\":13739:13972   */\n    tag_108:\n        /* \"#utility.yul\":13778:13781   */\n      0x00\n        /* \"#utility.yul\":13801:13825   */\n      tag_320\n        /* \"#utility.yul\":13819:13824   */\n      dup3\n        /* \"#utility.yul\":13801:13825   */\n      tag_137\n      jump\t// in\n    tag_320:\n        /* \"#utility.yul\":13792:13825   */\n      swap2\n      pop\n        /* \"#utility.yul\":13847:13913   */\n      0xffffffffffffffffffffffffffffffffffffffffffffffffffffffffffffffff\n        /* \"#utility.yul\":13840:13845   */\n      dup3\n        /* \"#utility.yul\":13837:13914   */\n      sub\n        /* \"#utility.yul\":13834:13937   */\n      tag_321\n      jumpi\n        /* \"#utility.yul\":13917:13935   */\n      tag_322\n      tag_170\n      jump\t// in\n    tag_322:\n        /* \"#utility.yul\":13834:13937   */\n    tag_321:\n        /* \"#utility.yul\":13964:13965   */\n      0x01\n        /* \"#utility.yul\":13957:13962   */\n      dup3\n        /* \"#utility.yul\":13953:13966   */\n      add\n        /* \"#utility.yul\":13946:13966   */\n      swap1\n      pop\n        /* \"#utility.yul\":13739:13972   */\n      swap2\n      swap1\n      pop\n      jump\t// out\n        /* \"#utility.yul\":13978:14145   */\n    tag_171:\n        /* \"#utility.yul\":14118:14137   */\n      0x41756b6174206d65207265686c65206263000000000000000000000000000000\n        /* \"#utility.yul\":14114:14115   */\n      0x00\n        /* \"#utility.yul\":14106:14112   */\n      dup3\n        /* \"#utility.yul\":14102:14116   */\n      add\n        /* \"#utility.yul\":14095:14138   */\n      mstore\n        /* \"#utility.yul\":13978:14145   */\n      pop\n      jump\t// out\n        /* \"#utility.yul\":14151:14517   */\n    tag_172:\n        /* \"#utility.yul\":14293:14296   */\n      0x00\n        /* \"#utility.yul\":14314:14381   */\n      tag_325\n        /* \"#utility.yul\":14378:14380   */\n      0x11\n        /* \"#utility.yul\":14373:14376   */\n      dup4\n        /* \"#utility.yul\":14314:14381   */\n      tag_161\n      jump\t// in\n    tag_325:\n        /* \"#utility.yul\":14307:14381   */\n      swap2\n      pop\n        /* \"#utility.yul\":14390:14483   */\n      tag_326\n        /* \"#utility.yul\":14479:14482   */\n      dup3\n        /* \"#utility.yul\":14390:14483   */\n      tag_171\n      jump\t// in\n    tag_326:\n        /* \"#utility.yul\":14508:14510   */\n      0x20\n        /* \"#utility.yul\":14503:14506   */\n      dup3\n        /* \"#utility.yul\":14499:14511   */\n      add\n        /* \"#utility.yul\":14492:14511   */\n      swap1\n      pop\n        /* \"#utility.yul\":14151:14517   */\n      swap2\n      swap1\n      pop\n      jump\t// out\n        /* \"#utility.yul\":14523:14942   */\n    tag_114:\n        /* \"#utility.yul\":14689:14693   */\n      0x00\n        /* \"#utility.yul\":14727:14729   */\n      0x20\n        /* \"#utility.yul\":14716:14725   */\n      dup3\n        /* \"#utility.yul\":14712:14730   */\n      add\n        /* \"#utility.yul\":14704:14730   */\n      swap1\n      pop\n        /* \"#utility.yul\":14776:14785   */\n      dup2\n        /* \"#utility.yul\":14770:14774   */\n      dup2\n        /* \"#utility.yul\":14766:14786   */\n      sub\n        /* \"#utility.yul\":14762:14763   */\n      0x00\n        /* \"#utility.yul\":14751:14760   */\n      dup4\n        /* \"#utility.yul\":14747:14764   */\n      add\n        /* \"#utility.yul\":14740:14787   */\n      mstore\n        /* \"#utility.yul\":14804:14935   */\n      tag_328\n        /* \"#utility.yul\":14930:14934   */\n      dup2\n        /* \"#utility.yul\":14804:14935   */\n      tag_172\n      jump\t// in\n    tag_328:\n        /* \"#utility.yul\":14796:14935   */\n      swap1\n      pop\n        /* \"#utility.yul\":14523:14942   */\n      swap2\n      swap1\n      pop\n      jump\t// out\n        /* \"#utility.yul\":14948:15125   */\n    tag_173:\n        /* \"#utility.yul\":15088:15117   */\n      0x596f7520617265206e6f7420616c6c6f77656420746f2073656e640000000000\n        /* \"#utility.yul\":15084:15085   */\n      0x00\n        /* \"#utility.yul\":15076:15082   */\n      dup3\n        /* \"#utility.yul\":15072:15086   */\n      add\n        /* \"#utility.yul\":15065:15118   */\n      mstore\n        /* \"#utility.yul\":14948:15125   */\n      pop\n      jump\t// out\n        /* \"#utility.yul\":15131:15497   */\n    tag_174:\n        /* \"#utility.yul\":15273:15276   */\n      0x00\n        /* \"#utility.yul\":15294:15361   */\n      tag_331\n        /* \"#utility.yul\":15358:15360   */\n      0x1b\n        /* \"#utility.yul\":15353:15356   */\n      dup4\n        /* \"#utility.yul\":15294:15361   */\n      tag_161\n      jump\t// in\n    tag_331:\n        /* \"#utility.yul\":15287:15361   */\n      swap2\n      pop\n        /* \"#utility.yul\":15370:15463   */\n      tag_332\n        /* \"#utility.yul\":15459:15462   */\n      dup3\n        /* \"#utility.yul\":15370:15463   */\n      tag_173\n      jump\t// in\n    tag_332:\n        /* \"#utility.yul\":15488:15490   */\n      0x20\n        /* \"#utility.yul\":15483:15486   */\n      dup3\n        /* \"#utility.yul\":15479:15491   */\n      add\n        /* \"#utility.yul\":15472:15491   */\n      swap1\n      pop\n        /* \"#utility.yul\":15131:15497   */\n      swap2\n      swap1\n      pop\n      jump\t// out\n        /* \"#utility.yul\":15503:15922   */\n    tag_117:\n        /* \"#utility.yul\":15669:15673   */\n      0x00\n        /* \"#utility.yul\":15707:15709   */\n      0x20\n        /* \"#utility.yul\":15696:15705   */\n      dup3\n        /* \"#utility.yul\":15692:15710   */\n      add\n        /* \"#utility.yul\":15684:15710   */\n      swap1\n      pop\n        /* \"#utility.yul\":15756:15765   */\n      dup2\n        /* \"#utility.yul\":15750:15754   */\n      dup2\n        /* \"#utility.yul\":15746:15766   */\n      sub\n        /* \"#utility.yul\":15742:15743   */\n      0x00\n        /* \"#utility.yul\":15731:15740   */\n      dup4\n        /* \"#utility.yul\":15727:15744   */\n      add\n        /* \"#utility.yul\":15720:15767   */\n      mstore\n        /* \"#utility.yul\":15784:15915   */\n      tag_334\n        /* \"#utility.yul\":15910:15914   */\n      dup2\n        /* \"#utility.yul\":15784:15915   */\n      tag_174\n      jump\t// in\n    tag_334:\n        /* \"#utility.yul\":15776:15915   */\n      swap1\n      pop\n        /* \"#utility.yul\":15503:15922   */\n      swap2\n      swap1\n      pop\n      jump\t// out\n        /* \"#utility.yul\":15928:16119   */\n    tag_119:\n        /* \"#utility.yul\":15968:15972   */\n      0x00\n        /* \"#utility.yul\":15988:16008   */\n      tag_336\n        /* \"#utility.yul\":16006:16007   */\n      dup3\n        /* \"#utility.yul\":15988:16008   */\n      tag_137\n      jump\t// in\n    tag_336:\n        /* \"#utility.yul\":15983:16008   */\n      swap2\n      pop\n        /* \"#utility.yul\":16022:16042   */\n      tag_337\n        /* \"#utility.yul\":16040:16041   */\n      dup4\n        /* \"#utility.yul\":16022:16042   */\n      tag_137\n      jump\t// in\n    tag_337:\n        /* \"#utility.yul\":16017:16042   */\n      swap3\n      pop\n        /* \"#utility.yul\":16061:16062   */\n      dup3\n        /* \"#utility.yul\":16058:16059   */\n      dup3\n        /* \"#utility.yul\":16055:16063   */\n      lt\n        /* \"#utility.yul\":16052:16086   */\n      iszero\n      tag_338\n      jumpi\n        /* \"#utility.yul\":16066:16084   */\n      tag_339\n      tag_170\n      jump\t// in\n    tag_339:\n        /* \"#utility.yul\":16052:16086   */\n    tag_338:\n        /* \"#utility.yul\":16111:16112   */\n      dup3\n        /* \"#utility.yul\":16108:16109   */\n      dup3\n        /* \"#utility.yul\":16104:16113   */\n      sub\n        /* \"#utility.yul\":16096:16113   */\n      swap1\n      pop\n        /* \"#utility.yul\":15928:16119   */\n      swap3\n      swap2\n      pop\n      pop\n      jump\t// out\n        /* \"#utility.yul\":16125:16272   */\n    tag_175:\n        /* \"#utility.yul\":16226:16237   */\n      0x00\n        /* \"#utility.yul\":16263:16266   */\n      dup2\n        /* \"#utility.yul\":16248:16266   */\n      swap1\n      pop\n        /* \"#utility.yul\":16125:16272   */\n      swap3\n      swap2\n      pop\n      pop\n      jump\t// out\n        /* \"#utility.yul\":16278:16651   */\n    tag_176:\n        /* \"#utility.yul\":16382:16385   */\n      0x00\n        /* \"#utility.yul\":16410:16448   */\n      tag_342\n        /* \"#utility.yul\":16442:16447   */\n      dup3\n        /* \"#utility.yul\":16410:16448   */\n      tag_157\n      jump\t// in\n    tag_342:\n        /* \"#utility.yul\":16464:16552   */\n      tag_343\n        /* \"#utility.yul\":16545:16551   */\n      dup2\n        /* \"#utility.yul\":16540:16543   */\n      dup6\n        /* \"#utility.yul\":16464:16552   */\n      tag_175\n      jump\t// in\n    tag_343:\n        /* \"#utility.yul\":16457:16552   */\n      swap4\n      pop\n        /* \"#utility.yul\":16561:16613   */\n      tag_344\n        /* \"#utility.yul\":16606:16612   */\n      dup2\n        /* \"#utility.yul\":16601:16604   */\n      dup6\n        /* \"#utility.yul\":16594:16598   */\n      0x20\n        /* \"#utility.yul\":16587:16592   */\n      dup7\n        /* \"#utility.yul\":16583:16599   */\n      add\n        /* \"#utility.yul\":16561:16613   */\n      tag_159\n      jump\t// in\n    tag_344:\n        /* \"#utility.yul\":16638:16644   */\n      dup1\n        /* \"#utility.yul\":16633:16636   */\n      dup5\n        /* \"#utility.yul\":16629:16645   */\n      add\n        /* \"#utility.yul\":16622:16645   */\n      swap2\n      pop\n        /* \"#utility.yul\":16386:16651   */\n      pop\n        /* \"#utility.yul\":16278:16651   */\n      swap3\n      swap2\n      pop\n      pop\n      jump\t// out\n        /* \"#utility.yul\":16657:16928   */\n    tag_121:\n        /* \"#utility.yul\":16787:16790   */\n      0x00\n        /* \"#utility.yul\":16809:16902   */\n      tag_346\n        /* \"#utility.yul\":16898:16901   */\n      dup3\n        /* \"#utility.yul\":16889:16895   */\n      dup5\n        /* \"#utility.yul\":16809:16902   */\n      tag_176\n      jump\t// in\n    tag_346:\n        /* \"#utility.yul\":16802:16902   */\n      swap2\n      pop\n        /* \"#utility.yul\":16919:16922   */\n      dup2\n        /* \"#utility.yul\":16912:16922   */\n      swap1\n      pop\n        /* \"#utility.yul\":16657:16928   */\n      swap3\n      swap2\n      pop\n      pop\n      jump\t// out\n        /* \"#utility.yul\":16934:17108   */\n    tag_177:\n        /* \"#utility.yul\":17074:17100   */\n      0x41626f7274696e6720746865207472616e73616374696f6e0000000000000000\n        /* \"#utility.yul\":17070:17071   */\n      0x00\n        /* \"#utility.yul\":17062:17068   */\n      dup3\n        /* \"#utility.yul\":17058:17072   */\n      add\n        /* \"#utility.yul\":17051:17101   */\n      mstore\n        /* \"#utility.yul\":16934:17108   */\n      pop\n      jump\t// out\n        /* \"#utility.yul\":17114:17480   */\n    tag_178:\n        /* \"#utility.yul\":17256:17259   */\n      0x00\n        /* \"#utility.yul\":17277:17344   */\n      tag_349\n        /* \"#utility.yul\":17341:17343   */\n      0x18\n        /* \"#utility.yul\":17336:17339   */\n      dup4\n        /* \"#utility.yul\":17277:17344   */\n      tag_161\n      jump\t// in\n    tag_349:\n        /* \"#utility.yul\":17270:17344   */\n      swap2\n      pop\n        /* \"#utility.yul\":17353:17446   */\n      tag_350\n        /* \"#utility.yul\":17442:17445   */\n      dup3\n        /* \"#utility.yul\":17353:17446   */\n      tag_177\n      jump\t// in\n    tag_350:\n        /* \"#utility.yul\":17471:17473   */\n      0x20\n        /* \"#utility.yul\":17466:17469   */\n      dup3\n        /* \"#utility.yul\":17462:17474   */\n      add\n        /* \"#utility.yul\":17455:17474   */\n      swap1\n      pop\n        /* \"#utility.yul\":17114:17480   */\n      swap2\n      swap1\n      pop\n      jump\t// out\n        /* \"#utility.yul\":17486:17905   */\n    tag_127:\n        /* \"#utility.yul\":17652:17656   */\n      0x00\n        /* \"#utility.yul\":17690:17692   */\n      0x20\n        /* \"#utility.yul\":17679:17688   */\n      dup3\n        /* \"#utility.yul\":17675:17693   */\n      add\n        /* \"#utility.yul\":17667:17693   */\n      swap1\n      pop\n        /* \"#utility.yul\":17739:17748   */\n      dup2\n        /* \"#utility.yul\":17733:17737   */\n      dup2\n        /* \"#utility.yul\":17729:17749   */\n      sub\n        /* \"#utility.yul\":17725:17726   */\n      0x00\n        /* \"#utility.yul\":17714:17723   */\n      dup4\n        /* \"#utility.yul\":17710:17727   */\n      add\n        /* \"#utility.yul\":17703:17750   */\n      mstore\n        /* \"#utility.yul\":17767:17898   */\n      tag_352\n        /* \"#utility.yul\":17893:17897   */\n      dup2\n        /* \"#utility.yul\":17767:17898   */\n      tag_178\n      jump\t// in\n    tag_352:\n        /* \"#utility.yul\":17759:17898   */\n      swap1\n      pop\n        /* \"#utility.yul\":17486:17905   */\n      swap2\n      swap1\n      pop\n      jump\t// out\n\n    auxdata: 0xa2646970667358221220e3e0a9da18e383e7ec58fca2e6d64089193a934dc36f4b0586c3ec67e45b913864736f6c634300080e0033\n}\n",
				"bytecode": {
					"linkReferences": {},
					"object": "608060405234801561001057600080fd5b5033600160006101000a81548173ffffffffffffffffffffffffffffffffffffffff021916908373ffffffffffffffffffffffffffffffffffffffff1602179055506116d0806100616000396000f3fe6080604052600436106100c65760003560e01c806369f3331d1161007f578063babcc53911610059578063babcc53914610285578063be45fd62146102c2578063c09bde54146102ff578063c7fdc3491461033c576100cd565b806369f3331d146102065780638da5cb5b14610231578063b1f8100d1461025c576100cd565b80630633b14a146100d257806306661abd1461010f5780632b8a1c5a1461013a578063310ec4a7146101635780633e5beab91461018c5780635e3cd7bc146101c9576100cd565b366100cd57005b600080fd5b3480156100de57600080fd5b506100f960048036038101906100f49190610df4565b610367565b6040516101069190610e3c565b60405180910390f35b34801561011b57600080fd5b50610124610387565b6040516101319190610e70565b60405180910390f35b34801561014657600080fd5b50610161600480360381019061015c9190610eb7565b61038d565b005b34801561016f57600080fd5b5061018a60048036038101906101859190610f23565b610477565b005b34801561019857600080fd5b506101b360048036038101906101ae9190610df4565b61060e565b6040516101c09190610e70565b60405180910390f35b3480156101d557600080fd5b506101f060048036038101906101eb9190610df4565b610626565b6040516101fd9190610e70565b60405180910390f35b34801561021257600080fd5b5061021b61063e565b6040516102289190610f84565b60405180910390f35b34801561023d57600080fd5b50610246610664565b6040516102539190610f84565b60405180910390f35b34801561026857600080fd5b50610283600480360381019061027e9190610fcb565b61068a565b005b34801561029157600080fd5b506102ac60048036038101906102a79190610df4565b610ab6565b6040516102b99190610e3c565b60405180910390f35b3480156102ce57600080fd5b506102e960048036038101906102e4919061113e565b610ad6565b6040516102f69190611235565b60405180910390f35b34801561030b57600080fd5b5061032660048036038101906103219190611257565b610d4e565b6040516103339190610e3c565b60405180910390f35b34801561034857600080fd5b50610351610d7d565b60405161035e9190610e70565b60405180910390f35b60006020528060005260406000206000915054906101000a900460ff1681565b60065481565b3373ffffffffffffffffffffffffffffffffffffffff16600160009054906101000a900473ffffffffffffffffffffffffffffffffffffffff1673ffffffffffffffffffffffffffffffffffffffff161461041d576040517f08c379a0000000000000000000000000000000000000000000000000000000008152600401610414906112f4565b60405180910390fd5b806000808473ffffffffffffffffffffffffffffffffffffffff1673ffffffffffffffffffffffffffffffffffffffff16815260200190815260200160002060006101000a81548160ff0219169083151502179055505050565b3373ffffffffffffffffffffffffffffffffffffffff16600160009054906101000a900473ffffffffffffffffffffffffffffffffffffffff1673ffffffffffffffffffffffffffffffffffffffff1614610507576040517f08c379a00000000000000000000000000000000000000000000000000000000081526004016104fe90611360565b60405180910390fd5b80600460008473ffffffffffffffffffffffffffffffffffffffff1673ffffffffffffffffffffffffffffffffffffffff1681526020019081526020016000208190555060008111156105b1576001600560008473ffffffffffffffffffffffffffffffffffffffff1673ffffffffffffffffffffffffffffffffffffffff16815260200190815260200160002060006101000a81548160ff02191690831515021790555061060a565b6000600560008473ffffffffffffffffffffffffffffffffffffffff1673ffffffffffffffffffffffffffffffffffffffff16815260200190815260200160002060006101000a81548160ff0219169083151502179055505b5050565b60046020528060005260406000206000915090505481565b60076020528060005260406000206000915090505481565b600260009054906101000a900473ffffffffffffffffffffffffffffffffffffffff1681565b600160009054906101000a900473ffffffffffffffffffffffffffffffffffffffff1681565b6000803373ffffffffffffffffffffffffffffffffffffffff1673ffffffffffffffffffffffffffffffffffffffff16815260200190815260200160002060009054906101000a900460ff16610715576040517f08c379a000000000000000000000000000000000000000000000000000000000815260040161070c906113cc565b60405180910390fd5b60001515600360008373ffffffffffffffffffffffffffffffffffffffff1673ffffffffffffffffffffffffffffffffffffffff16815260200190815260200160002060003373ffffffffffffffffffffffffffffffffffffffff1673ffffffffffffffffffffffffffffffffffffffff16815260200190815260200160002060009054906101000a900460ff161515146107e5576040517f08c379a00000000000000000000000000000000000000000000000000000000081526004016107dc90611438565b60405180910390fd5b8073ffffffffffffffffffffffffffffffffffffffff16600260009054906101000a900473ffffffffffffffffffffffffffffffffffffffff1673ffffffffffffffffffffffffffffffffffffffff16146108cc576000600760008373ffffffffffffffffffffffffffffffffffffffff1673ffffffffffffffffffffffffffffffffffffffff168152602001908152602001600020540361088a5760006006819055505b80600260006101000a81548173ffffffffffffffffffffffffffffffffffffffff021916908373ffffffffffffffffffffffffffffffffffffffff1602179055505b600660008154809291906108df90611487565b919050555060065460076000600260009054906101000a900473ffffffffffffffffffffffffffffffffffffffff1673ffffffffffffffffffffffffffffffffffffffff1673ffffffffffffffffffffffffffffffffffffffff16815260200190815260200160002081905550600160036000600260009054906101000a900473ffffffffffffffffffffffffffffffffffffffff1673ffffffffffffffffffffffffffffffffffffffff1673ffffffffffffffffffffffffffffffffffffffff16815260200190815260200160002060003373ffffffffffffffffffffffffffffffffffffffff1673ffffffffffffffffffffffffffffffffffffffff16815260200190815260200160002060006101000a81548160ff021916908315150217905550600360065410610ab357600260009054906101000a900473ffffffffffffffffffffffffffffffffffffffff16600160006101000a81548173ffffffffffffffffffffffffffffffffffffffff021916908373ffffffffffffffffffffffffffffffffffffffff1602179055506000600260006101000a81548173ffffffffffffffffffffffffffffffffffffffff021916908373ffffffffffffffffffffffffffffffffffffffff1602179055505b50565b60056020528060005260406000206000915054906101000a900460ff1681565b6060600160009054906101000a900473ffffffffffffffffffffffffffffffffffffffff1673ffffffffffffffffffffffffffffffffffffffff163373ffffffffffffffffffffffffffffffffffffffff1614610c925782600460003373ffffffffffffffffffffffffffffffffffffffff1673ffffffffffffffffffffffffffffffffffffffff168152602001908152602001600020541015610baf576040517f08c379a0000000000000000000000000000000000000000000000000000000008152600401610ba69061151b565b60405180910390fd5b600560003373ffffffffffffffffffffffffffffffffffffffff1673ffffffffffffffffffffffffffffffffffffffff16815260200190815260200160002060009054906101000a900460ff16610c3b576040517f08c379a0000000000000000000000000000000000000000000000000000000008152600401610c3290611587565b60405180910390fd5b82600460003373ffffffffffffffffffffffffffffffffffffffff1673ffffffffffffffffffffffffffffffffffffffff1681526020019081526020016000206000828254610c8a91906115a7565b925050819055505b6000808573ffffffffffffffffffffffffffffffffffffffff168585604051610cbb9190611617565b60006040518083038185875af1925050503d8060008114610cf8576040519150601f19603f3d011682016040523d82523d6000602084013e610cfd565b606091505b509150915081610d42576040517f08c379a0000000000000000000000000000000000000000000000000000000008152600401610d399061167a565b60405180910390fd5b80925050509392505050565b60036020528160005260406000206020528060005260406000206000915091509054906101000a900460ff1681565b600381565b6000604051905090565b600080fd5b600080fd5b600073ffffffffffffffffffffffffffffffffffffffff82169050919050565b6000610dc182610d96565b9050919050565b610dd181610db6565b8114610ddc57600080fd5b50565b600081359050610dee81610dc8565b92915050565b600060208284031215610e0a57610e09610d8c565b5b6000610e1884828501610ddf565b91505092915050565b60008115159050919050565b610e3681610e21565b82525050565b6000602082019050610e516000830184610e2d565b92915050565b6000819050919050565b610e6a81610e57565b82525050565b6000602082019050610e856000830184610e61565b92915050565b610e9481610e21565b8114610e9f57600080fd5b50565b600081359050610eb181610e8b565b92915050565b60008060408385031215610ece57610ecd610d8c565b5b6000610edc85828601610ddf565b9250506020610eed85828601610ea2565b9150509250929050565b610f0081610e57565b8114610f0b57600080fd5b50565b600081359050610f1d81610ef7565b92915050565b60008060408385031215610f3a57610f39610d8c565b5b6000610f4885828601610ddf565b9250506020610f5985828601610f0e565b9150509250929050565b6000610f6e82610d96565b9050919050565b610f7e81610f63565b82525050565b6000602082019050610f996000830184610f75565b92915050565b610fa881610f63565b8114610fb357600080fd5b50565b600081359050610fc581610f9f565b92915050565b600060208284031215610fe157610fe0610d8c565b5b6000610fef84828501610fb6565b91505092915050565b600080fd5b600080fd5b6000601f19601f8301169050919050565b7f4e487b7100000000000000000000000000000000000000000000000000000000600052604160045260246000fd5b61104b82611002565b810181811067ffffffffffffffff8211171561106a57611069611013565b5b80604052505050565b600061107d610d82565b90506110898282611042565b919050565b600067ffffffffffffffff8211156110a9576110a8611013565b5b6110b282611002565b9050602081019050919050565b82818337600083830152505050565b60006110e16110dc8461108e565b611073565b9050828152602081018484840111156110fd576110fc610ffd565b5b6111088482856110bf565b509392505050565b600082601f83011261112557611124610ff8565b5b81356111358482602086016110ce565b91505092915050565b60008060006060848603121561115757611156610d8c565b5b600061116586828701610fb6565b935050602061117686828701610f0e565b925050604084013567ffffffffffffffff81111561119757611196610d91565b5b6111a386828701611110565b9150509250925092565b600081519050919050565b600082825260208201905092915050565b60005b838110156111e75780820151818401526020810190506111cc565b838111156111f6576000848401525b50505050565b6000611207826111ad565b61121181856111b8565b93506112218185602086016111c9565b61122a81611002565b840191505092915050565b6000602082019050818103600083015261124f81846111fc565b905092915050565b6000806040838503121561126e5761126d610d8c565b5b600061127c85828601610ddf565b925050602061128d85828601610ddf565b9150509250929050565b600082825260208201905092915050565b7f596f757220617265206e6f7420746865206f776e657200000000000000000000600082015250565b60006112de601683611297565b91506112e9826112a8565b602082019050919050565b6000602082019050818103600083015261130d816112d1565b9050919050565b7f596f7520617265206e6f7420746865206f776e65720000000000000000000000600082015250565b600061134a601583611297565b915061135582611314565b602082019050919050565b600060208201905081810360008301526113798161133d565b9050919050565b7f596f7520617265206e6f74206120677561726469616e00000000000000000000600082015250565b60006113b6601683611297565b91506113c182611380565b602082019050919050565b600060208201905081810360008301526113e5816113a9565b9050919050565b7f796f75206861766520616c726561647920766f74656400000000000000000000600082015250565b6000611422601683611297565b915061142d826113ec565b602082019050919050565b6000602082019050818103600083015261145181611415565b9050919050565b7f4e487b7100000000000000000000000000000000000000000000000000000000600052601160045260246000fd5b600061149282610e57565b91507fffffffffffffffffffffffffffffffffffffffffffffffffffffffffffffffff82036114c4576114c3611458565b5b600182019050919050565b7f41756b6174206d65207265686c65206263000000000000000000000000000000600082015250565b6000611505601183611297565b9150611510826114cf565b602082019050919050565b60006020820190508181036000830152611534816114f8565b9050919050565b7f596f7520617265206e6f7420616c6c6f77656420746f2073656e640000000000600082015250565b6000611571601b83611297565b915061157c8261153b565b602082019050919050565b600060208201905081810360008301526115a081611564565b9050919050565b60006115b282610e57565b91506115bd83610e57565b9250828210156115d0576115cf611458565b5b828203905092915050565b600081905092915050565b60006115f1826111ad565b6115fb81856115db565b935061160b8185602086016111c9565b80840191505092915050565b600061162382846115e6565b915081905092915050565b7f41626f7274696e6720746865207472616e73616374696f6e0000000000000000600082015250565b6000611664601883611297565b915061166f8261162e565b602082019050919050565b6000602082019050818103600083015261169381611657565b905091905056fea2646970667358221220e3e0a9da18e383e7ec58fca2e6d64089193a934dc36f4b0586c3ec67e45b913864736f6c634300080e0033",
					"opcodes": "PUSH1 0x80 PUSH1 0x40 MSTORE CALLVALUE DUP1 ISZERO PUSH2 0x10 JUMPI PUSH1 0x0 DUP1 REVERT JUMPDEST POP CALLER PUSH1 0x1 PUSH1 0x0 PUSH2 0x100 EXP DUP2 SLOAD DUP2 PUSH20 0xFFFFFFFFFFFFFFFFFFFFFFFFFFFFFFFFFFFFFFFF MUL NOT AND SWAP1 DUP4 PUSH20 0xFFFFFFFFFFFFFFFFFFFFFFFFFFFFFFFFFFFFFFFF AND MUL OR SWAP1 SSTORE POP PUSH2 0x16D0 DUP1 PUSH2 0x61 PUSH1 0x0 CODECOPY PUSH1 0x0 RETURN INVALID PUSH1 0x80 PUSH1 0x40 MSTORE PUSH1 0x4 CALLDATASIZE LT PUSH2 0xC6 JUMPI PUSH1 0x0 CALLDATALOAD PUSH1 0xE0 SHR DUP1 PUSH4 0x69F3331D GT PUSH2 0x7F JUMPI DUP1 PUSH4 0xBABCC539 GT PUSH2 0x59 JUMPI DUP1 PUSH4 0xBABCC539 EQ PUSH2 0x285 JUMPI DUP1 PUSH4 0xBE45FD62 EQ PUSH2 0x2C2 JUMPI DUP1 PUSH4 0xC09BDE54 EQ PUSH2 0x2FF JUMPI DUP1 PUSH4 0xC7FDC349 EQ PUSH2 0x33C JUMPI PUSH2 0xCD JUMP JUMPDEST DUP1 PUSH4 0x69F3331D EQ PUSH2 0x206 JUMPI DUP1 PUSH4 0x8DA5CB5B EQ PUSH2 0x231 JUMPI DUP1 PUSH4 0xB1F8100D EQ PUSH2 0x25C JUMPI PUSH2 0xCD JUMP JUMPDEST DUP1 PUSH4 0x633B14A EQ PUSH2 0xD2 JUMPI DUP1 PUSH4 0x6661ABD EQ PUSH2 0x10F JUMPI DUP1 PUSH4 0x2B8A1C5A EQ PUSH2 0x13A JUMPI DUP1 PUSH4 0x310EC4A7 EQ PUSH2 0x163 JUMPI DUP1 PUSH4 0x3E5BEAB9 EQ PUSH2 0x18C JUMPI DUP1 PUSH4 0x5E3CD7BC EQ PUSH2 0x1C9 JUMPI PUSH2 0xCD JUMP JUMPDEST CALLDATASIZE PUSH2 0xCD JUMPI STOP JUMPDEST PUSH1 0x0 DUP1 REVERT JUMPDEST CALLVALUE DUP1 ISZERO PUSH2 0xDE JUMPI PUSH1 0x0 DUP1 REVERT JUMPDEST POP PUSH2 0xF9 PUSH1 0x4 DUP1 CALLDATASIZE SUB DUP2 ADD SWAP1 PUSH2 0xF4 SWAP2 SWAP1 PUSH2 0xDF4 JUMP JUMPDEST PUSH2 0x367 JUMP JUMPDEST PUSH1 0x40 MLOAD PUSH2 0x106 SWAP2 SWAP1 PUSH2 0xE3C JUMP JUMPDEST PUSH1 0x40 MLOAD DUP1 SWAP2 SUB SWAP1 RETURN JUMPDEST CALLVALUE DUP1 ISZERO PUSH2 0x11B JUMPI PUSH1 0x0 DUP1 REVERT JUMPDEST POP PUSH2 0x124 PUSH2 0x387 JUMP JUMPDEST PUSH1 0x40 MLOAD PUSH2 0x131 SWAP2 SWAP1 PUSH2 0xE70 JUMP JUMPDEST PUSH1 0x40 MLOAD DUP1 SWAP2 SUB SWAP1 RETURN JUMPDEST CALLVALUE DUP1 ISZERO PUSH2 0x146 JUMPI PUSH1 0x0 DUP1 REVERT JUMPDEST POP PUSH2 0x161 PUSH1 0x4 DUP1 CALLDATASIZE SUB DUP2 ADD SWAP1 PUSH2 0x15C SWAP2 SWAP1 PUSH2 0xEB7 JUMP JUMPDEST PUSH2 0x38D JUMP JUMPDEST STOP JUMPDEST CALLVALUE DUP1 ISZERO PUSH2 0x16F JUMPI PUSH1 0x0 DUP1 REVERT JUMPDEST POP PUSH2 0x18A PUSH1 0x4 DUP1 CALLDATASIZE SUB DUP2 ADD SWAP1 PUSH2 0x185 SWAP2 SWAP1 PUSH2 0xF23 JUMP JUMPDEST PUSH2 0x477 JUMP JUMPDEST STOP JUMPDEST CALLVALUE DUP1 ISZERO PUSH2 0x198 JUMPI PUSH1 0x0 DUP1 REVERT JUMPDEST POP PUSH2 0x1B3 PUSH1 0x4 DUP1 CALLDATASIZE SUB DUP2 ADD SWAP1 PUSH2 0x1AE SWAP2 SWAP1 PUSH2 0xDF4 JUMP JUMPDEST PUSH2 0x60E JUMP JUMPDEST PUSH1 0x40 MLOAD PUSH2 0x1C0 SWAP2 SWAP1 PUSH2 0xE70 JUMP JUMPDEST PUSH1 0x40 MLOAD DUP1 SWAP2 SUB SWAP1 RETURN JUMPDEST CALLVALUE DUP1 ISZERO PUSH2 0x1D5 JUMPI PUSH1 0x0 DUP1 REVERT JUMPDEST POP PUSH2 0x1F0 PUSH1 0x4 DUP1 CALLDATASIZE SUB DUP2 ADD SWAP1 PUSH2 0x1EB SWAP2 SWAP1 PUSH2 0xDF4 JUMP JUMPDEST PUSH2 0x626 JUMP JUMPDEST PUSH1 0x40 MLOAD PUSH2 0x1FD SWAP2 SWAP1 PUSH2 0xE70 JUMP JUMPDEST PUSH1 0x40 MLOAD DUP1 SWAP2 SUB SWAP1 RETURN JUMPDEST CALLVALUE DUP1 ISZERO PUSH2 0x212 JUMPI PUSH1 0x0 DUP1 REVERT JUMPDEST POP PUSH2 0x21B PUSH2 0x63E JUMP JUMPDEST PUSH1 0x40 MLOAD PUSH2 0x228 SWAP2 SWAP1 PUSH2 0xF84 JUMP JUMPDEST PUSH1 0x40 MLOAD DUP1 SWAP2 SUB SWAP1 RETURN JUMPDEST CALLVALUE DUP1 ISZERO PUSH2 0x23D JUMPI PUSH1 0x0 DUP1 REVERT JUMPDEST POP PUSH2 0x246 PUSH2 0x664 JUMP JUMPDEST PUSH1 0x40 MLOAD PUSH2 0x253 SWAP2 SWAP1 PUSH2 0xF84 JUMP JUMPDEST PUSH1 0x40 MLOAD DUP1 SWAP2 SUB SWAP1 RETURN JUMPDEST CALLVALUE DUP1 ISZERO PUSH2 0x268 JUMPI PUSH1 0x0 DUP1 REVERT JUMPDEST POP PUSH2 0x283 PUSH1 0x4 DUP1 CALLDATASIZE SUB DUP2 ADD SWAP1 PUSH2 0x27E SWAP2 SWAP1 PUSH2 0xFCB JUMP JUMPDEST PUSH2 0x68A JUMP JUMPDEST STOP JUMPDEST CALLVALUE DUP1 ISZERO PUSH2 0x291 JUMPI PUSH1 0x0 DUP1 REVERT JUMPDEST POP PUSH2 0x2AC PUSH1 0x4 DUP1 CALLDATASIZE SUB DUP2 ADD SWAP1 PUSH2 0x2A7 SWAP2 SWAP1 PUSH2 0xDF4 JUMP JUMPDEST PUSH2 0xAB6 JUMP JUMPDEST PUSH1 0x40 MLOAD PUSH2 0x2B9 SWAP2 SWAP1 PUSH2 0xE3C JUMP JUMPDEST PUSH1 0x40 MLOAD DUP1 SWAP2 SUB SWAP1 RETURN JUMPDEST CALLVALUE DUP1 ISZERO PUSH2 0x2CE JUMPI PUSH1 0x0 DUP1 REVERT JUMPDEST POP PUSH2 0x2E9 PUSH1 0x4 DUP1 CALLDATASIZE SUB DUP2 ADD SWAP1 PUSH2 0x2E4 SWAP2 SWAP1 PUSH2 0x113E JUMP JUMPDEST PUSH2 0xAD6 JUMP JUMPDEST PUSH1 0x40 MLOAD PUSH2 0x2F6 SWAP2 SWAP1 PUSH2 0x1235 JUMP JUMPDEST PUSH1 0x40 MLOAD DUP1 SWAP2 SUB SWAP1 RETURN JUMPDEST CALLVALUE DUP1 ISZERO PUSH2 0x30B JUMPI PUSH1 0x0 DUP1 REVERT JUMPDEST POP PUSH2 0x326 PUSH1 0x4 DUP1 CALLDATASIZE SUB DUP2 ADD SWAP1 PUSH2 0x321 SWAP2 SWAP1 PUSH2 0x1257 JUMP JUMPDEST PUSH2 0xD4E JUMP JUMPDEST PUSH1 0x40 MLOAD PUSH2 0x333 SWAP2 SWAP1 PUSH2 0xE3C JUMP JUMPDEST PUSH1 0x40 MLOAD DUP1 SWAP2 SUB SWAP1 RETURN JUMPDEST CALLVALUE DUP1 ISZERO PUSH2 0x348 JUMPI PUSH1 0x0 DUP1 REVERT JUMPDEST POP PUSH2 0x351 PUSH2 0xD7D JUMP JUMPDEST PUSH1 0x40 MLOAD PUSH2 0x35E SWAP2 SWAP1 PUSH2 0xE70 JUMP JUMPDEST PUSH1 0x40 MLOAD DUP1 SWAP2 SUB SWAP1 RETURN JUMPDEST PUSH1 0x0 PUSH1 0x20 MSTORE DUP1 PUSH1 0x0 MSTORE PUSH1 0x40 PUSH1 0x0 KECCAK256 PUSH1 0x0 SWAP2 POP SLOAD SWAP1 PUSH2 0x100 EXP SWAP1 DIV PUSH1 0xFF AND DUP2 JUMP JUMPDEST PUSH1 0x6 SLOAD DUP2 JUMP JUMPDEST CALLER PUSH20 0xFFFFFFFFFFFFFFFFFFFFFFFFFFFFFFFFFFFFFFFF AND PUSH1 0x1 PUSH1 0x0 SWAP1 SLOAD SWAP1 PUSH2 0x100 EXP SWAP1 DIV PUSH20 0xFFFFFFFFFFFFFFFFFFFFFFFFFFFFFFFFFFFFFFFF AND PUSH20 0xFFFFFFFFFFFFFFFFFFFFFFFFFFFFFFFFFFFFFFFF AND EQ PUSH2 0x41D JUMPI PUSH1 0x40 MLOAD PUSH32 0x8C379A000000000000000000000000000000000000000000000000000000000 DUP2 MSTORE PUSH1 0x4 ADD PUSH2 0x414 SWAP1 PUSH2 0x12F4 JUMP JUMPDEST PUSH1 0x40 MLOAD DUP1 SWAP2 SUB SWAP1 REVERT JUMPDEST DUP1 PUSH1 0x0 DUP1 DUP5 PUSH20 0xFFFFFFFFFFFFFFFFFFFFFFFFFFFFFFFFFFFFFFFF AND PUSH20 0xFFFFFFFFFFFFFFFFFFFFFFFFFFFFFFFFFFFFFFFF AND DUP2 MSTORE PUSH1 0x20 ADD SWAP1 DUP2 MSTORE PUSH1 0x20 ADD PUSH1 0x0 KECCAK256 PUSH1 0x0 PUSH2 0x100 EXP DUP2 SLOAD DUP2 PUSH1 0xFF MUL NOT AND SWAP1 DUP4 ISZERO ISZERO MUL OR SWAP1 SSTORE POP POP POP JUMP JUMPDEST CALLER PUSH20 0xFFFFFFFFFFFFFFFFFFFFFFFFFFFFFFFFFFFFFFFF AND PUSH1 0x1 PUSH1 0x0 SWAP1 SLOAD SWAP1 PUSH2 0x100 EXP SWAP1 DIV PUSH20 0xFFFFFFFFFFFFFFFFFFFFFFFFFFFFFFFFFFFFFFFF AND PUSH20 0xFFFFFFFFFFFFFFFFFFFFFFFFFFFFFFFFFFFFFFFF AND EQ PUSH2 0x507 JUMPI PUSH1 0x40 MLOAD PUSH32 0x8C379A000000000000000000000000000000000000000000000000000000000 DUP2 MSTORE PUSH1 0x4 ADD PUSH2 0x4FE SWAP1 PUSH2 0x1360 JUMP JUMPDEST PUSH1 0x40 MLOAD DUP1 SWAP2 SUB SWAP1 REVERT JUMPDEST DUP1 PUSH1 0x4 PUSH1 0x0 DUP5 PUSH20 0xFFFFFFFFFFFFFFFFFFFFFFFFFFFFFFFFFFFFFFFF AND PUSH20 0xFFFFFFFFFFFFFFFFFFFFFFFFFFFFFFFFFFFFFFFF AND DUP2 MSTORE PUSH1 0x20 ADD SWAP1 DUP2 MSTORE PUSH1 0x20 ADD PUSH1 0x0 KECCAK256 DUP2 SWAP1 SSTORE POP PUSH1 0x0 DUP2 GT ISZERO PUSH2 0x5B1 JUMPI PUSH1 0x1 PUSH1 0x5 PUSH1 0x0 DUP5 PUSH20 0xFFFFFFFFFFFFFFFFFFFFFFFFFFFFFFFFFFFFFFFF AND PUSH20 0xFFFFFFFFFFFFFFFFFFFFFFFFFFFFFFFFFFFFFFFF AND DUP2 MSTORE PUSH1 0x20 ADD SWAP1 DUP2 MSTORE PUSH1 0x20 ADD PUSH1 0x0 KECCAK256 PUSH1 0x0 PUSH2 0x100 EXP DUP2 SLOAD DUP2 PUSH1 0xFF MUL NOT AND SWAP1 DUP4 ISZERO ISZERO MUL OR SWAP1 SSTORE POP PUSH2 0x60A JUMP JUMPDEST PUSH1 0x0 PUSH1 0x5 PUSH1 0x0 DUP5 PUSH20 0xFFFFFFFFFFFFFFFFFFFFFFFFFFFFFFFFFFFFFFFF AND PUSH20 0xFFFFFFFFFFFFFFFFFFFFFFFFFFFFFFFFFFFFFFFF AND DUP2 MSTORE PUSH1 0x20 ADD SWAP1 DUP2 MSTORE PUSH1 0x20 ADD PUSH1 0x0 KECCAK256 PUSH1 0x0 PUSH2 0x100 EXP DUP2 SLOAD DUP2 PUSH1 0xFF MUL NOT AND SWAP1 DUP4 ISZERO ISZERO MUL OR SWAP1 SSTORE POP JUMPDEST POP POP JUMP JUMPDEST PUSH1 0x4 PUSH1 0x20 MSTORE DUP1 PUSH1 0x0 MSTORE PUSH1 0x40 PUSH1 0x0 KECCAK256 PUSH1 0x0 SWAP2 POP SWAP1 POP SLOAD DUP2 JUMP JUMPDEST PUSH1 0x7 PUSH1 0x20 MSTORE DUP1 PUSH1 0x0 MSTORE PUSH1 0x40 PUSH1 0x0 KECCAK256 PUSH1 0x0 SWAP2 POP SWAP1 POP SLOAD DUP2 JUMP JUMPDEST PUSH1 0x2 PUSH1 0x0 SWAP1 SLOAD SWAP1 PUSH2 0x100 EXP SWAP1 DIV PUSH20 0xFFFFFFFFFFFFFFFFFFFFFFFFFFFFFFFFFFFFFFFF AND DUP2 JUMP JUMPDEST PUSH1 0x1 PUSH1 0x0 SWAP1 SLOAD SWAP1 PUSH2 0x100 EXP SWAP1 DIV PUSH20 0xFFFFFFFFFFFFFFFFFFFFFFFFFFFFFFFFFFFFFFFF AND DUP2 JUMP JUMPDEST PUSH1 0x0 DUP1 CALLER PUSH20 0xFFFFFFFFFFFFFFFFFFFFFFFFFFFFFFFFFFFFFFFF AND PUSH20 0xFFFFFFFFFFFFFFFFFFFFFFFFFFFFFFFFFFFFFFFF AND DUP2 MSTORE PUSH1 0x20 ADD SWAP1 DUP2 MSTORE PUSH1 0x20 ADD PUSH1 0x0 KECCAK256 PUSH1 0x0 SWAP1 SLOAD SWAP1 PUSH2 0x100 EXP SWAP1 DIV PUSH1 0xFF AND PUSH2 0x715 JUMPI PUSH1 0x40 MLOAD PUSH32 0x8C379A000000000000000000000000000000000000000000000000000000000 DUP2 MSTORE PUSH1 0x4 ADD PUSH2 0x70C SWAP1 PUSH2 0x13CC JUMP JUMPDEST PUSH1 0x40 MLOAD DUP1 SWAP2 SUB SWAP1 REVERT JUMPDEST PUSH1 0x0 ISZERO ISZERO PUSH1 0x3 PUSH1 0x0 DUP4 PUSH20 0xFFFFFFFFFFFFFFFFFFFFFFFFFFFFFFFFFFFFFFFF AND PUSH20 0xFFFFFFFFFFFFFFFFFFFFFFFFFFFFFFFFFFFFFFFF AND DUP2 MSTORE PUSH1 0x20 ADD SWAP1 DUP2 MSTORE PUSH1 0x20 ADD PUSH1 0x0 KECCAK256 PUSH1 0x0 CALLER PUSH20 0xFFFFFFFFFFFFFFFFFFFFFFFFFFFFFFFFFFFFFFFF AND PUSH20 0xFFFFFFFFFFFFFFFFFFFFFFFFFFFFFFFFFFFFFFFF AND DUP2 MSTORE PUSH1 0x20 ADD SWAP1 DUP2 MSTORE PUSH1 0x20 ADD PUSH1 0x0 KECCAK256 PUSH1 0x0 SWAP1 SLOAD SWAP1 PUSH2 0x100 EXP SWAP1 DIV PUSH1 0xFF AND ISZERO ISZERO EQ PUSH2 0x7E5 JUMPI PUSH1 0x40 MLOAD PUSH32 0x8C379A000000000000000000000000000000000000000000000000000000000 DUP2 MSTORE PUSH1 0x4 ADD PUSH2 0x7DC SWAP1 PUSH2 0x1438 JUMP JUMPDEST PUSH1 0x40 MLOAD DUP1 SWAP2 SUB SWAP1 REVERT JUMPDEST DUP1 PUSH20 0xFFFFFFFFFFFFFFFFFFFFFFFFFFFFFFFFFFFFFFFF AND PUSH1 0x2 PUSH1 0x0 SWAP1 SLOAD SWAP1 PUSH2 0x100 EXP SWAP1 DIV PUSH20 0xFFFFFFFFFFFFFFFFFFFFFFFFFFFFFFFFFFFFFFFF AND PUSH20 0xFFFFFFFFFFFFFFFFFFFFFFFFFFFFFFFFFFFFFFFF AND EQ PUSH2 0x8CC JUMPI PUSH1 0x0 PUSH1 0x7 PUSH1 0x0 DUP4 PUSH20 0xFFFFFFFFFFFFFFFFFFFFFFFFFFFFFFFFFFFFFFFF AND PUSH20 0xFFFFFFFFFFFFFFFFFFFFFFFFFFFFFFFFFFFFFFFF AND DUP2 MSTORE PUSH1 0x20 ADD SWAP1 DUP2 MSTORE PUSH1 0x20 ADD PUSH1 0x0 KECCAK256 SLOAD SUB PUSH2 0x88A JUMPI PUSH1 0x0 PUSH1 0x6 DUP2 SWAP1 SSTORE POP JUMPDEST DUP1 PUSH1 0x2 PUSH1 0x0 PUSH2 0x100 EXP DUP2 SLOAD DUP2 PUSH20 0xFFFFFFFFFFFFFFFFFFFFFFFFFFFFFFFFFFFFFFFF MUL NOT AND SWAP1 DUP4 PUSH20 0xFFFFFFFFFFFFFFFFFFFFFFFFFFFFFFFFFFFFFFFF AND MUL OR SWAP1 SSTORE POP JUMPDEST PUSH1 0x6 PUSH1 0x0 DUP2 SLOAD DUP1 SWAP3 SWAP2 SWAP1 PUSH2 0x8DF SWAP1 PUSH2 0x1487 JUMP JUMPDEST SWAP2 SWAP1 POP SSTORE POP PUSH1 0x6 SLOAD PUSH1 0x7 PUSH1 0x0 PUSH1 0x2 PUSH1 0x0 SWAP1 SLOAD SWAP1 PUSH2 0x100 EXP SWAP1 DIV PUSH20 0xFFFFFFFFFFFFFFFFFFFFFFFFFFFFFFFFFFFFFFFF AND PUSH20 0xFFFFFFFFFFFFFFFFFFFFFFFFFFFFFFFFFFFFFFFF AND PUSH20 0xFFFFFFFFFFFFFFFFFFFFFFFFFFFFFFFFFFFFFFFF AND DUP2 MSTORE PUSH1 0x20 ADD SWAP1 DUP2 MSTORE PUSH1 0x20 ADD PUSH1 0x0 KECCAK256 DUP2 SWAP1 SSTORE POP PUSH1 0x1 PUSH1 0x3 PUSH1 0x0 PUSH1 0x2 PUSH1 0x0 SWAP1 SLOAD SWAP1 PUSH2 0x100 EXP SWAP1 DIV PUSH20 0xFFFFFFFFFFFFFFFFFFFFFFFFFFFFFFFFFFFFFFFF AND PUSH20 0xFFFFFFFFFFFFFFFFFFFFFFFFFFFFFFFFFFFFFFFF AND PUSH20 0xFFFFFFFFFFFFFFFFFFFFFFFFFFFFFFFFFFFFFFFF AND DUP2 MSTORE PUSH1 0x20 ADD SWAP1 DUP2 MSTORE PUSH1 0x20 ADD PUSH1 0x0 KECCAK256 PUSH1 0x0 CALLER PUSH20 0xFFFFFFFFFFFFFFFFFFFFFFFFFFFFFFFFFFFFFFFF AND PUSH20 0xFFFFFFFFFFFFFFFFFFFFFFFFFFFFFFFFFFFFFFFF AND DUP2 MSTORE PUSH1 0x20 ADD SWAP1 DUP2 MSTORE PUSH1 0x20 ADD PUSH1 0x0 KECCAK256 PUSH1 0x0 PUSH2 0x100 EXP DUP2 SLOAD DUP2 PUSH1 0xFF MUL NOT AND SWAP1 DUP4 ISZERO ISZERO MUL OR SWAP1 SSTORE POP PUSH1 0x3 PUSH1 0x6 SLOAD LT PUSH2 0xAB3 JUMPI PUSH1 0x2 PUSH1 0x0 SWAP1 SLOAD SWAP1 PUSH2 0x100 EXP SWAP1 DIV PUSH20 0xFFFFFFFFFFFFFFFFFFFFFFFFFFFFFFFFFFFFFFFF AND PUSH1 0x1 PUSH1 0x0 PUSH2 0x100 EXP DUP2 SLOAD DUP2 PUSH20 0xFFFFFFFFFFFFFFFFFFFFFFFFFFFFFFFFFFFFFFFF MUL NOT AND SWAP1 DUP4 PUSH20 0xFFFFFFFFFFFFFFFFFFFFFFFFFFFFFFFFFFFFFFFF AND MUL OR SWAP1 SSTORE POP PUSH1 0x0 PUSH1 0x2 PUSH1 0x0 PUSH2 0x100 EXP DUP2 SLOAD DUP2 PUSH20 0xFFFFFFFFFFFFFFFFFFFFFFFFFFFFFFFFFFFFFFFF MUL NOT AND SWAP1 DUP4 PUSH20 0xFFFFFFFFFFFFFFFFFFFFFFFFFFFFFFFFFFFFFFFF AND MUL OR SWAP1 SSTORE POP JUMPDEST POP JUMP JUMPDEST PUSH1 0x5 PUSH1 0x20 MSTORE DUP1 PUSH1 0x0 MSTORE PUSH1 0x40 PUSH1 0x0 KECCAK256 PUSH1 0x0 SWAP2 POP SLOAD SWAP1 PUSH2 0x100 EXP SWAP1 DIV PUSH1 0xFF AND DUP2 JUMP JUMPDEST PUSH1 0x60 PUSH1 0x1 PUSH1 0x0 SWAP1 SLOAD SWAP1 PUSH2 0x100 EXP SWAP1 DIV PUSH20 0xFFFFFFFFFFFFFFFFFFFFFFFFFFFFFFFFFFFFFFFF AND PUSH20 0xFFFFFFFFFFFFFFFFFFFFFFFFFFFFFFFFFFFFFFFF AND CALLER PUSH20 0xFFFFFFFFFFFFFFFFFFFFFFFFFFFFFFFFFFFFFFFF AND EQ PUSH2 0xC92 JUMPI DUP3 PUSH1 0x4 PUSH1 0x0 CALLER PUSH20 0xFFFFFFFFFFFFFFFFFFFFFFFFFFFFFFFFFFFFFFFF AND PUSH20 0xFFFFFFFFFFFFFFFFFFFFFFFFFFFFFFFFFFFFFFFF AND DUP2 MSTORE PUSH1 0x20 ADD SWAP1 DUP2 MSTORE PUSH1 0x20 ADD PUSH1 0x0 KECCAK256 SLOAD LT ISZERO PUSH2 0xBAF JUMPI PUSH1 0x40 MLOAD PUSH32 0x8C379A000000000000000000000000000000000000000000000000000000000 DUP2 MSTORE PUSH1 0x4 ADD PUSH2 0xBA6 SWAP1 PUSH2 0x151B JUMP JUMPDEST PUSH1 0x40 MLOAD DUP1 SWAP2 SUB SWAP1 REVERT JUMPDEST PUSH1 0x5 PUSH1 0x0 CALLER PUSH20 0xFFFFFFFFFFFFFFFFFFFFFFFFFFFFFFFFFFFFFFFF AND PUSH20 0xFFFFFFFFFFFFFFFFFFFFFFFFFFFFFFFFFFFFFFFF AND DUP2 MSTORE PUSH1 0x20 ADD SWAP1 DUP2 MSTORE PUSH1 0x20 ADD PUSH1 0x0 KECCAK256 PUSH1 0x0 SWAP1 SLOAD SWAP1 PUSH2 0x100 EXP SWAP1 DIV PUSH1 0xFF AND PUSH2 0xC3B JUMPI PUSH1 0x40 MLOAD PUSH32 0x8C379A000000000000000000000000000000000000000000000000000000000 DUP2 MSTORE PUSH1 0x4 ADD PUSH2 0xC32 SWAP1 PUSH2 0x1587 JUMP JUMPDEST PUSH1 0x40 MLOAD DUP1 SWAP2 SUB SWAP1 REVERT JUMPDEST DUP3 PUSH1 0x4 PUSH1 0x0 CALLER PUSH20 0xFFFFFFFFFFFFFFFFFFFFFFFFFFFFFFFFFFFFFFFF AND PUSH20 0xFFFFFFFFFFFFFFFFFFFFFFFFFFFFFFFFFFFFFFFF AND DUP2 MSTORE PUSH1 0x20 ADD SWAP1 DUP2 MSTORE PUSH1 0x20 ADD PUSH1 0x0 KECCAK256 PUSH1 0x0 DUP3 DUP3 SLOAD PUSH2 0xC8A SWAP2 SWAP1 PUSH2 0x15A7 JUMP JUMPDEST SWAP3 POP POP DUP2 SWAP1 SSTORE POP JUMPDEST PUSH1 0x0 DUP1 DUP6 PUSH20 0xFFFFFFFFFFFFFFFFFFFFFFFFFFFFFFFFFFFFFFFF AND DUP6 DUP6 PUSH1 0x40 MLOAD PUSH2 0xCBB SWAP2 SWAP1 PUSH2 0x1617 JUMP JUMPDEST PUSH1 0x0 PUSH1 0x40 MLOAD DUP1 DUP4 SUB DUP2 DUP6 DUP8 GAS CALL SWAP3 POP POP POP RETURNDATASIZE DUP1 PUSH1 0x0 DUP2 EQ PUSH2 0xCF8 JUMPI PUSH1 0x40 MLOAD SWAP2 POP PUSH1 0x1F NOT PUSH1 0x3F RETURNDATASIZE ADD AND DUP3 ADD PUSH1 0x40 MSTORE RETURNDATASIZE DUP3 MSTORE RETURNDATASIZE PUSH1 0x0 PUSH1 0x20 DUP5 ADD RETURNDATACOPY PUSH2 0xCFD JUMP JUMPDEST PUSH1 0x60 SWAP2 POP JUMPDEST POP SWAP2 POP SWAP2 POP DUP2 PUSH2 0xD42 JUMPI PUSH1 0x40 MLOAD PUSH32 0x8C379A000000000000000000000000000000000000000000000000000000000 DUP2 MSTORE PUSH1 0x4 ADD PUSH2 0xD39 SWAP1 PUSH2 0x167A JUMP JUMPDEST PUSH1 0x40 MLOAD DUP1 SWAP2 SUB SWAP1 REVERT JUMPDEST DUP1 SWAP3 POP POP POP SWAP4 SWAP3 POP POP POP JUMP JUMPDEST PUSH1 0x3 PUSH1 0x20 MSTORE DUP2 PUSH1 0x0 MSTORE PUSH1 0x40 PUSH1 0x0 KECCAK256 PUSH1 0x20 MSTORE DUP1 PUSH1 0x0 MSTORE PUSH1 0x40 PUSH1 0x0 KECCAK256 PUSH1 0x0 SWAP2 POP SWAP2 POP SWAP1 SLOAD SWAP1 PUSH2 0x100 EXP SWAP1 DIV PUSH1 0xFF AND DUP2 JUMP JUMPDEST PUSH1 0x3 DUP2 JUMP JUMPDEST PUSH1 0x0 PUSH1 0x40 MLOAD SWAP1 POP SWAP1 JUMP JUMPDEST PUSH1 0x0 DUP1 REVERT JUMPDEST PUSH1 0x0 DUP1 REVERT JUMPDEST PUSH1 0x0 PUSH20 0xFFFFFFFFFFFFFFFFFFFFFFFFFFFFFFFFFFFFFFFF DUP3 AND SWAP1 POP SWAP2 SWAP1 POP JUMP JUMPDEST PUSH1 0x0 PUSH2 0xDC1 DUP3 PUSH2 0xD96 JUMP JUMPDEST SWAP1 POP SWAP2 SWAP1 POP JUMP JUMPDEST PUSH2 0xDD1 DUP2 PUSH2 0xDB6 JUMP JUMPDEST DUP2 EQ PUSH2 0xDDC JUMPI PUSH1 0x0 DUP1 REVERT JUMPDEST POP JUMP JUMPDEST PUSH1 0x0 DUP2 CALLDATALOAD SWAP1 POP PUSH2 0xDEE DUP2 PUSH2 0xDC8 JUMP JUMPDEST SWAP3 SWAP2 POP POP JUMP JUMPDEST PUSH1 0x0 PUSH1 0x20 DUP3 DUP5 SUB SLT ISZERO PUSH2 0xE0A JUMPI PUSH2 0xE09 PUSH2 0xD8C JUMP JUMPDEST JUMPDEST PUSH1 0x0 PUSH2 0xE18 DUP5 DUP3 DUP6 ADD PUSH2 0xDDF JUMP JUMPDEST SWAP2 POP POP SWAP3 SWAP2 POP POP JUMP JUMPDEST PUSH1 0x0 DUP2 ISZERO ISZERO SWAP1 POP SWAP2 SWAP1 POP JUMP JUMPDEST PUSH2 0xE36 DUP2 PUSH2 0xE21 JUMP JUMPDEST DUP3 MSTORE POP POP JUMP JUMPDEST PUSH1 0x0 PUSH1 0x20 DUP3 ADD SWAP1 POP PUSH2 0xE51 PUSH1 0x0 DUP4 ADD DUP5 PUSH2 0xE2D JUMP JUMPDEST SWAP3 SWAP2 POP POP JUMP JUMPDEST PUSH1 0x0 DUP2 SWAP1 POP SWAP2 SWAP1 POP JUMP JUMPDEST PUSH2 0xE6A DUP2 PUSH2 0xE57 JUMP JUMPDEST DUP3 MSTORE POP POP JUMP JUMPDEST PUSH1 0x0 PUSH1 0x20 DUP3 ADD SWAP1 POP PUSH2 0xE85 PUSH1 0x0 DUP4 ADD DUP5 PUSH2 0xE61 JUMP JUMPDEST SWAP3 SWAP2 POP POP JUMP JUMPDEST PUSH2 0xE94 DUP2 PUSH2 0xE21 JUMP JUMPDEST DUP2 EQ PUSH2 0xE9F JUMPI PUSH1 0x0 DUP1 REVERT JUMPDEST POP JUMP JUMPDEST PUSH1 0x0 DUP2 CALLDATALOAD SWAP1 POP PUSH2 0xEB1 DUP2 PUSH2 0xE8B JUMP JUMPDEST SWAP3 SWAP2 POP POP JUMP JUMPDEST PUSH1 0x0 DUP1 PUSH1 0x40 DUP4 DUP6 SUB SLT ISZERO PUSH2 0xECE JUMPI PUSH2 0xECD PUSH2 0xD8C JUMP JUMPDEST JUMPDEST PUSH1 0x0 PUSH2 0xEDC DUP6 DUP3 DUP7 ADD PUSH2 0xDDF JUMP JUMPDEST SWAP3 POP POP PUSH1 0x20 PUSH2 0xEED DUP6 DUP3 DUP7 ADD PUSH2 0xEA2 JUMP JUMPDEST SWAP2 POP POP SWAP3 POP SWAP3 SWAP1 POP JUMP JUMPDEST PUSH2 0xF00 DUP2 PUSH2 0xE57 JUMP JUMPDEST DUP2 EQ PUSH2 0xF0B JUMPI PUSH1 0x0 DUP1 REVERT JUMPDEST POP JUMP JUMPDEST PUSH1 0x0 DUP2 CALLDATALOAD SWAP1 POP PUSH2 0xF1D DUP2 PUSH2 0xEF7 JUMP JUMPDEST SWAP3 SWAP2 POP POP JUMP JUMPDEST PUSH1 0x0 DUP1 PUSH1 0x40 DUP4 DUP6 SUB SLT ISZERO PUSH2 0xF3A JUMPI PUSH2 0xF39 PUSH2 0xD8C JUMP JUMPDEST JUMPDEST PUSH1 0x0 PUSH2 0xF48 DUP6 DUP3 DUP7 ADD PUSH2 0xDDF JUMP JUMPDEST SWAP3 POP POP PUSH1 0x20 PUSH2 0xF59 DUP6 DUP3 DUP7 ADD PUSH2 0xF0E JUMP JUMPDEST SWAP2 POP POP SWAP3 POP SWAP3 SWAP1 POP JUMP JUMPDEST PUSH1 0x0 PUSH2 0xF6E DUP3 PUSH2 0xD96 JUMP JUMPDEST SWAP1 POP SWAP2 SWAP1 POP JUMP JUMPDEST PUSH2 0xF7E DUP2 PUSH2 0xF63 JUMP JUMPDEST DUP3 MSTORE POP POP JUMP JUMPDEST PUSH1 0x0 PUSH1 0x20 DUP3 ADD SWAP1 POP PUSH2 0xF99 PUSH1 0x0 DUP4 ADD DUP5 PUSH2 0xF75 JUMP JUMPDEST SWAP3 SWAP2 POP POP JUMP JUMPDEST PUSH2 0xFA8 DUP2 PUSH2 0xF63 JUMP JUMPDEST DUP2 EQ PUSH2 0xFB3 JUMPI PUSH1 0x0 DUP1 REVERT JUMPDEST POP JUMP JUMPDEST PUSH1 0x0 DUP2 CALLDATALOAD SWAP1 POP PUSH2 0xFC5 DUP2 PUSH2 0xF9F JUMP JUMPDEST SWAP3 SWAP2 POP POP JUMP JUMPDEST PUSH1 0x0 PUSH1 0x20 DUP3 DUP5 SUB SLT ISZERO PUSH2 0xFE1 JUMPI PUSH2 0xFE0 PUSH2 0xD8C JUMP JUMPDEST JUMPDEST PUSH1 0x0 PUSH2 0xFEF DUP5 DUP3 DUP6 ADD PUSH2 0xFB6 JUMP JUMPDEST SWAP2 POP POP SWAP3 SWAP2 POP POP JUMP JUMPDEST PUSH1 0x0 DUP1 REVERT JUMPDEST PUSH1 0x0 DUP1 REVERT JUMPDEST PUSH1 0x0 PUSH1 0x1F NOT PUSH1 0x1F DUP4 ADD AND SWAP1 POP SWAP2 SWAP1 POP JUMP JUMPDEST PUSH32 0x4E487B7100000000000000000000000000000000000000000000000000000000 PUSH1 0x0 MSTORE PUSH1 0x41 PUSH1 0x4 MSTORE PUSH1 0x24 PUSH1 0x0 REVERT JUMPDEST PUSH2 0x104B DUP3 PUSH2 0x1002 JUMP JUMPDEST DUP2 ADD DUP2 DUP2 LT PUSH8 0xFFFFFFFFFFFFFFFF DUP3 GT OR ISZERO PUSH2 0x106A JUMPI PUSH2 0x1069 PUSH2 0x1013 JUMP JUMPDEST JUMPDEST DUP1 PUSH1 0x40 MSTORE POP POP POP JUMP JUMPDEST PUSH1 0x0 PUSH2 0x107D PUSH2 0xD82 JUMP JUMPDEST SWAP1 POP PUSH2 0x1089 DUP3 DUP3 PUSH2 0x1042 JUMP JUMPDEST SWAP2 SWAP1 POP JUMP JUMPDEST PUSH1 0x0 PUSH8 0xFFFFFFFFFFFFFFFF DUP3 GT ISZERO PUSH2 0x10A9 JUMPI PUSH2 0x10A8 PUSH2 0x1013 JUMP JUMPDEST JUMPDEST PUSH2 0x10B2 DUP3 PUSH2 0x1002 JUMP JUMPDEST SWAP1 POP PUSH1 0x20 DUP2 ADD SWAP1 POP SWAP2 SWAP1 POP JUMP JUMPDEST DUP3 DUP2 DUP4 CALLDATACOPY PUSH1 0x0 DUP4 DUP4 ADD MSTORE POP POP POP JUMP JUMPDEST PUSH1 0x0 PUSH2 0x10E1 PUSH2 0x10DC DUP5 PUSH2 0x108E JUMP JUMPDEST PUSH2 0x1073 JUMP JUMPDEST SWAP1 POP DUP3 DUP2 MSTORE PUSH1 0x20 DUP2 ADD DUP5 DUP5 DUP5 ADD GT ISZERO PUSH2 0x10FD JUMPI PUSH2 0x10FC PUSH2 0xFFD JUMP JUMPDEST JUMPDEST PUSH2 0x1108 DUP5 DUP3 DUP6 PUSH2 0x10BF JUMP JUMPDEST POP SWAP4 SWAP3 POP POP POP JUMP JUMPDEST PUSH1 0x0 DUP3 PUSH1 0x1F DUP4 ADD SLT PUSH2 0x1125 JUMPI PUSH2 0x1124 PUSH2 0xFF8 JUMP JUMPDEST JUMPDEST DUP2 CALLDATALOAD PUSH2 0x1135 DUP5 DUP3 PUSH1 0x20 DUP7 ADD PUSH2 0x10CE JUMP JUMPDEST SWAP2 POP POP SWAP3 SWAP2 POP POP JUMP JUMPDEST PUSH1 0x0 DUP1 PUSH1 0x0 PUSH1 0x60 DUP5 DUP7 SUB SLT ISZERO PUSH2 0x1157 JUMPI PUSH2 0x1156 PUSH2 0xD8C JUMP JUMPDEST JUMPDEST PUSH1 0x0 PUSH2 0x1165 DUP7 DUP3 DUP8 ADD PUSH2 0xFB6 JUMP JUMPDEST SWAP4 POP POP PUSH1 0x20 PUSH2 0x1176 DUP7 DUP3 DUP8 ADD PUSH2 0xF0E JUMP JUMPDEST SWAP3 POP POP PUSH1 0x40 DUP5 ADD CALLDATALOAD PUSH8 0xFFFFFFFFFFFFFFFF DUP2 GT ISZERO PUSH2 0x1197 JUMPI PUSH2 0x1196 PUSH2 0xD91 JUMP JUMPDEST JUMPDEST PUSH2 0x11A3 DUP7 DUP3 DUP8 ADD PUSH2 0x1110 JUMP JUMPDEST SWAP2 POP POP SWAP3 POP SWAP3 POP SWAP3 JUMP JUMPDEST PUSH1 0x0 DUP2 MLOAD SWAP1 POP SWAP2 SWAP1 POP JUMP JUMPDEST PUSH1 0x0 DUP3 DUP3 MSTORE PUSH1 0x20 DUP3 ADD SWAP1 POP SWAP3 SWAP2 POP POP JUMP JUMPDEST PUSH1 0x0 JUMPDEST DUP4 DUP2 LT ISZERO PUSH2 0x11E7 JUMPI DUP1 DUP3 ADD MLOAD DUP2 DUP5 ADD MSTORE PUSH1 0x20 DUP2 ADD SWAP1 POP PUSH2 0x11CC JUMP JUMPDEST DUP4 DUP2 GT ISZERO PUSH2 0x11F6 JUMPI PUSH1 0x0 DUP5 DUP5 ADD MSTORE JUMPDEST POP POP POP POP JUMP JUMPDEST PUSH1 0x0 PUSH2 0x1207 DUP3 PUSH2 0x11AD JUMP JUMPDEST PUSH2 0x1211 DUP2 DUP6 PUSH2 0x11B8 JUMP JUMPDEST SWAP4 POP PUSH2 0x1221 DUP2 DUP6 PUSH1 0x20 DUP7 ADD PUSH2 0x11C9 JUMP JUMPDEST PUSH2 0x122A DUP2 PUSH2 0x1002 JUMP JUMPDEST DUP5 ADD SWAP2 POP POP SWAP3 SWAP2 POP POP JUMP JUMPDEST PUSH1 0x0 PUSH1 0x20 DUP3 ADD SWAP1 POP DUP2 DUP2 SUB PUSH1 0x0 DUP4 ADD MSTORE PUSH2 0x124F DUP2 DUP5 PUSH2 0x11FC JUMP JUMPDEST SWAP1 POP SWAP3 SWAP2 POP POP JUMP JUMPDEST PUSH1 0x0 DUP1 PUSH1 0x40 DUP4 DUP6 SUB SLT ISZERO PUSH2 0x126E JUMPI PUSH2 0x126D PUSH2 0xD8C JUMP JUMPDEST JUMPDEST PUSH1 0x0 PUSH2 0x127C DUP6 DUP3 DUP7 ADD PUSH2 0xDDF JUMP JUMPDEST SWAP3 POP POP PUSH1 0x20 PUSH2 0x128D DUP6 DUP3 DUP7 ADD PUSH2 0xDDF JUMP JUMPDEST SWAP2 POP POP SWAP3 POP SWAP3 SWAP1 POP JUMP JUMPDEST PUSH1 0x0 DUP3 DUP3 MSTORE PUSH1 0x20 DUP3 ADD SWAP1 POP SWAP3 SWAP2 POP POP JUMP JUMPDEST PUSH32 0x596F757220617265206E6F7420746865206F776E657200000000000000000000 PUSH1 0x0 DUP3 ADD MSTORE POP JUMP JUMPDEST PUSH1 0x0 PUSH2 0x12DE PUSH1 0x16 DUP4 PUSH2 0x1297 JUMP JUMPDEST SWAP2 POP PUSH2 0x12E9 DUP3 PUSH2 0x12A8 JUMP JUMPDEST PUSH1 0x20 DUP3 ADD SWAP1 POP SWAP2 SWAP1 POP JUMP JUMPDEST PUSH1 0x0 PUSH1 0x20 DUP3 ADD SWAP1 POP DUP2 DUP2 SUB PUSH1 0x0 DUP4 ADD MSTORE PUSH2 0x130D DUP2 PUSH2 0x12D1 JUMP JUMPDEST SWAP1 POP SWAP2 SWAP1 POP JUMP JUMPDEST PUSH32 0x596F7520617265206E6F7420746865206F776E65720000000000000000000000 PUSH1 0x0 DUP3 ADD MSTORE POP JUMP JUMPDEST PUSH1 0x0 PUSH2 0x134A PUSH1 0x15 DUP4 PUSH2 0x1297 JUMP JUMPDEST SWAP2 POP PUSH2 0x1355 DUP3 PUSH2 0x1314 JUMP JUMPDEST PUSH1 0x20 DUP3 ADD SWAP1 POP SWAP2 SWAP1 POP JUMP JUMPDEST PUSH1 0x0 PUSH1 0x20 DUP3 ADD SWAP1 POP DUP2 DUP2 SUB PUSH1 0x0 DUP4 ADD MSTORE PUSH2 0x1379 DUP2 PUSH2 0x133D JUMP JUMPDEST SWAP1 POP SWAP2 SWAP1 POP JUMP JUMPDEST PUSH32 0x596F7520617265206E6F74206120677561726469616E00000000000000000000 PUSH1 0x0 DUP3 ADD MSTORE POP JUMP JUMPDEST PUSH1 0x0 PUSH2 0x13B6 PUSH1 0x16 DUP4 PUSH2 0x1297 JUMP JUMPDEST SWAP2 POP PUSH2 0x13C1 DUP3 PUSH2 0x1380 JUMP JUMPDEST PUSH1 0x20 DUP3 ADD SWAP1 POP SWAP2 SWAP1 POP JUMP JUMPDEST PUSH1 0x0 PUSH1 0x20 DUP3 ADD SWAP1 POP DUP2 DUP2 SUB PUSH1 0x0 DUP4 ADD MSTORE PUSH2 0x13E5 DUP2 PUSH2 0x13A9 JUMP JUMPDEST SWAP1 POP SWAP2 SWAP1 POP JUMP JUMPDEST PUSH32 0x796F75206861766520616C726561647920766F74656400000000000000000000 PUSH1 0x0 DUP3 ADD MSTORE POP JUMP JUMPDEST PUSH1 0x0 PUSH2 0x1422 PUSH1 0x16 DUP4 PUSH2 0x1297 JUMP JUMPDEST SWAP2 POP PUSH2 0x142D DUP3 PUSH2 0x13EC JUMP JUMPDEST PUSH1 0x20 DUP3 ADD SWAP1 POP SWAP2 SWAP1 POP JUMP JUMPDEST PUSH1 0x0 PUSH1 0x20 DUP3 ADD SWAP1 POP DUP2 DUP2 SUB PUSH1 0x0 DUP4 ADD MSTORE PUSH2 0x1451 DUP2 PUSH2 0x1415 JUMP JUMPDEST SWAP1 POP SWAP2 SWAP1 POP JUMP JUMPDEST PUSH32 0x4E487B7100000000000000000000000000000000000000000000000000000000 PUSH1 0x0 MSTORE PUSH1 0x11 PUSH1 0x4 MSTORE PUSH1 0x24 PUSH1 0x0 REVERT JUMPDEST PUSH1 0x0 PUSH2 0x1492 DUP3 PUSH2 0xE57 JUMP JUMPDEST SWAP2 POP PUSH32 0xFFFFFFFFFFFFFFFFFFFFFFFFFFFFFFFFFFFFFFFFFFFFFFFFFFFFFFFFFFFFFFFF DUP3 SUB PUSH2 0x14C4 JUMPI PUSH2 0x14C3 PUSH2 0x1458 JUMP JUMPDEST JUMPDEST PUSH1 0x1 DUP3 ADD SWAP1 POP SWAP2 SWAP1 POP JUMP JUMPDEST PUSH32 0x41756B6174206D65207265686C65206263000000000000000000000000000000 PUSH1 0x0 DUP3 ADD MSTORE POP JUMP JUMPDEST PUSH1 0x0 PUSH2 0x1505 PUSH1 0x11 DUP4 PUSH2 0x1297 JUMP JUMPDEST SWAP2 POP PUSH2 0x1510 DUP3 PUSH2 0x14CF JUMP JUMPDEST PUSH1 0x20 DUP3 ADD SWAP1 POP SWAP2 SWAP1 POP JUMP JUMPDEST PUSH1 0x0 PUSH1 0x20 DUP3 ADD SWAP1 POP DUP2 DUP2 SUB PUSH1 0x0 DUP4 ADD MSTORE PUSH2 0x1534 DUP2 PUSH2 0x14F8 JUMP JUMPDEST SWAP1 POP SWAP2 SWAP1 POP JUMP JUMPDEST PUSH32 0x596F7520617265206E6F7420616C6C6F77656420746F2073656E640000000000 PUSH1 0x0 DUP3 ADD MSTORE POP JUMP JUMPDEST PUSH1 0x0 PUSH2 0x1571 PUSH1 0x1B DUP4 PUSH2 0x1297 JUMP JUMPDEST SWAP2 POP PUSH2 0x157C DUP3 PUSH2 0x153B JUMP JUMPDEST PUSH1 0x20 DUP3 ADD SWAP1 POP SWAP2 SWAP1 POP JUMP JUMPDEST PUSH1 0x0 PUSH1 0x20 DUP3 ADD SWAP1 POP DUP2 DUP2 SUB PUSH1 0x0 DUP4 ADD MSTORE PUSH2 0x15A0 DUP2 PUSH2 0x1564 JUMP JUMPDEST SWAP1 POP SWAP2 SWAP1 POP JUMP JUMPDEST PUSH1 0x0 PUSH2 0x15B2 DUP3 PUSH2 0xE57 JUMP JUMPDEST SWAP2 POP PUSH2 0x15BD DUP4 PUSH2 0xE57 JUMP JUMPDEST SWAP3 POP DUP3 DUP3 LT ISZERO PUSH2 0x15D0 JUMPI PUSH2 0x15CF PUSH2 0x1458 JUMP JUMPDEST JUMPDEST DUP3 DUP3 SUB SWAP1 POP SWAP3 SWAP2 POP POP JUMP JUMPDEST PUSH1 0x0 DUP2 SWAP1 POP SWAP3 SWAP2 POP POP JUMP JUMPDEST PUSH1 0x0 PUSH2 0x15F1 DUP3 PUSH2 0x11AD JUMP JUMPDEST PUSH2 0x15FB DUP2 DUP6 PUSH2 0x15DB JUMP JUMPDEST SWAP4 POP PUSH2 0x160B DUP2 DUP6 PUSH1 0x20 DUP7 ADD PUSH2 0x11C9 JUMP JUMPDEST DUP1 DUP5 ADD SWAP2 POP POP SWAP3 SWAP2 POP POP JUMP JUMPDEST PUSH1 0x0 PUSH2 0x1623 DUP3 DUP5 PUSH2 0x15E6 JUMP JUMPDEST SWAP2 POP DUP2 SWAP1 POP SWAP3 SWAP2 POP POP JUMP JUMPDEST PUSH32 0x41626F7274696E6720746865207472616E73616374696F6E0000000000000000 PUSH1 0x0 DUP3 ADD MSTORE POP JUMP JUMPDEST PUSH1 0x0 PUSH2 0x1664 PUSH1 0x18 DUP4 PUSH2 0x1297 JUMP JUMPDEST SWAP2 POP PUSH2 0x166F DUP3 PUSH2 0x162E JUMP JUMPDEST PUSH1 0x20 DUP3 ADD SWAP1 POP SWAP2 SWAP1 POP JUMP JUMPDEST PUSH1 0x0 PUSH1 0x20 DUP3 ADD SWAP1 POP DUP2 DUP2 SUB PUSH1 0x0 DUP4 ADD MSTORE PUSH2 0x1693 DUP2 PUSH2 0x1657 JUMP JUMPDEST SWAP1 POP SWAP2 SWAP1 POP JUMP INVALID LOG2 PUSH5 0x6970667358 0x22 SLT KECCAK256 0xE3 0xE0 0xA9 0xDA XOR 0xE3 DUP4 0xE7 0xEC PC 0xFC LOG2 0xE6 0xD6 BLOCKHASH DUP10 NOT GASPRICE SWAP4 0x4D 0xC3 PUSH16 0x4B0586C3EC67E45B913864736F6C6343 STOP ADDMOD 0xE STOP CALLER "
				},
				"gasEstimates": {
					"creation": {
						"codeDepositCost": "1168000",
						"executionCost": "25480",
						"totalCost": "1193480"
					},
					"external": {
						"ConfirmationFromGuardiansForReset()": "417",
						"NewVote(address,address)": "infinite",
						"allowance(address)": "2903",
						"count()": "2452",
						"guardians(address)": "2846",
						"isAllowed(address)": "2867",
						"nextOwner()": "2537",
						"owner()": "2559",
						"proposeNewOwner(address)": "168951",
						"setAllowance(address,uint256)": "49463",
						"setGuardian(address,bool)": "27206",
						"transfer(address,uint256,bytes)": "infinite",
						"voteCount(address)": "2925"
					}
				},
				"methodIdentifiers": {
					"ConfirmationFromGuardiansForReset()": "c7fdc349",
					"NewVote(address,address)": "c09bde54",
					"allowance(address)": "3e5beab9",
					"count()": "06661abd",
					"guardians(address)": "0633b14a",
					"isAllowed(address)": "babcc539",
					"nextOwner()": "69f3331d",
					"owner()": "8da5cb5b",
					"proposeNewOwner(address)": "b1f8100d",
					"setAllowance(address,uint256)": "310ec4a7",
					"setGuardian(address,bool)": "2b8a1c5a",
					"transfer(address,uint256,bytes)": "be45fd62",
					"voteCount(address)": "5e3cd7bc"
				}
			},
			"storageLayout": {
				"storage": [
					{
						"astId": 5,
						"contract": "contracts/SmartContractWallet.sol:SmartWallet",
						"label": "guardians",
						"offset": 0,
						"slot": "0",
						"type": "t_mapping(t_address,t_bool)"
					},
					{
						"astId": 7,
						"contract": "contracts/SmartContractWallet.sol:SmartWallet",
						"label": "owner",
						"offset": 0,
						"slot": "1",
						"type": "t_address_payable"
					},
					{
						"astId": 9,
						"contract": "contracts/SmartContractWallet.sol:SmartWallet",
						"label": "nextOwner",
						"offset": 0,
						"slot": "2",
						"type": "t_address_payable"
					},
					{
						"astId": 15,
						"contract": "contracts/SmartContractWallet.sol:SmartWallet",
						"label": "NewVote",
						"offset": 0,
						"slot": "3",
						"type": "t_mapping(t_address,t_mapping(t_address,t_bool))"
					},
					{
						"astId": 19,
						"contract": "contracts/SmartContractWallet.sol:SmartWallet",
						"label": "allowance",
						"offset": 0,
						"slot": "4",
						"type": "t_mapping(t_address,t_uint256)"
					},
					{
						"astId": 23,
						"contract": "contracts/SmartContractWallet.sol:SmartWallet",
						"label": "isAllowed",
						"offset": 0,
						"slot": "5",
						"type": "t_mapping(t_address,t_bool)"
					},
					{
						"astId": 25,
						"contract": "contracts/SmartContractWallet.sol:SmartWallet",
						"label": "count",
						"offset": 0,
						"slot": "6",
						"type": "t_uint256"
					},
					{
						"astId": 32,
						"contract": "contracts/SmartContractWallet.sol:SmartWallet",
						"label": "voteCount",
						"offset": 0,
						"slot": "7",
						"type": "t_mapping(t_address,t_uint256)"
					}
				],
				"types": {
					"t_address": {
						"encoding": "inplace",
						"label": "address",
						"numberOfBytes": "20"
					},
					"t_address_payable": {
						"encoding": "inplace",
						"label": "address payable",
						"numberOfBytes": "20"
					},
					"t_bool": {
						"encoding": "inplace",
						"label": "bool",
						"numberOfBytes": "1"
					},
					"t_mapping(t_address,t_bool)": {
						"encoding": "mapping",
						"key": "t_address",
						"label": "mapping(address => bool)",
						"numberOfBytes": "32",
						"value": "t_bool"
					},
					"t_mapping(t_address,t_mapping(t_address,t_bool))": {
						"encoding": "mapping",
						"key": "t_address",
						"label": "mapping(address => mapping(address => bool))",
						"numberOfBytes": "32",
						"value": "t_mapping(t_address,t_bool)"
					},
					"t_mapping(t_address,t_uint256)": {
						"encoding": "mapping",
						"key": "t_address",
						"label": "mapping(address => uint256)",
						"numberOfBytes": "32",
						"value": "t_uint256"
					},
					"t_uint256": {
						"encoding": "inplace",
						"label": "uint256",
						"numberOfBytes": "32"
					}
				}
			},
			"userdoc": {
				"kind": "user",
				"methods": {},
				"version": 1
			}
		}
	}
}