{
	"data": {
		"bytecode": {
			"linkReferences": {},
			"object": "60806040527ffffffffffffffffffffffffffffffffffffffffffffffffffffffffffffffff660015534801561003457600080fd5b50610256806100446000396000f3fe608060405234801561001057600080fd5b506004361061004c5760003560e01c80632cb777a6146100515780636a345bb41461006f578063b36cbc5f1461008d578063f102a71d146100a9575b600080fd5b6100596100b3565b60405161006691906100fc565b60405180910390f35b6100776100b9565b6040516100849190610130565b60405180910390f35b6100a760048036038101906100a2919061017c565b6100bf565b005b6100b16100c9565b005b60015481565b60005481565b8060008190555050565b600160008154809291906100dc906101d8565b9190505550565b6000819050919050565b6100f6816100e3565b82525050565b600060208201905061011160008301846100ed565b92915050565b6000819050919050565b61012a81610117565b82525050565b60006020820190506101456000830184610121565b92915050565b600080fd5b61015981610117565b811461016457600080fd5b50565b60008135905061017681610150565b92915050565b6000602082840312156101925761019161014b565b5b60006101a084828501610167565b91505092915050565b7f4e487b7100000000000000000000000000000000000000000000000000000000600052601160045260246000fd5b60006101e3826100e3565b91507f7fffffffffffffffffffffffffffffffffffffffffffffffffffffffffffffff8203610215576102146101a9565b5b60018201905091905056fea2646970667358221220be2b8504d3b5a307fd05a5d86b2da0518cc68ccefe580743a0116dd07f4ce47c64736f6c634300080e0033",
			"opcodes": "PUSH1 0x80 PUSH1 0x40 MSTORE PUSH32 0xFFFFFFFFFFFFFFFFFFFFFFFFFFFFFFFFFFFFFFFFFFFFFFFFFFFFFFFFFFFFFFF6 PUSH1 0x1 SSTORE CALLVALUE DUP1 ISZERO PUSH2 0x34 JUMPI PUSH1 0x0 DUP1 REVERT JUMPDEST POP PUSH2 0x256 DUP1 PUSH2 0x44 PUSH1 0x0 CODECOPY PUSH1 0x0 RETURN INVALID PUSH1 0x80 PUSH1 0x40 MSTORE CALLVALUE DUP1 ISZERO PUSH2 0x10 JUMPI PUSH1 0x0 DUP1 REVERT JUMPDEST POP PUSH1 0x4 CALLDATASIZE LT PUSH2 0x4C JUMPI PUSH1 0x0 CALLDATALOAD PUSH1 0xE0 SHR DUP1 PUSH4 0x2CB777A6 EQ PUSH2 0x51 JUMPI DUP1 PUSH4 0x6A345BB4 EQ PUSH2 0x6F JUMPI DUP1 PUSH4 0xB36CBC5F EQ PUSH2 0x8D JUMPI DUP1 PUSH4 0xF102A71D EQ PUSH2 0xA9 JUMPI JUMPDEST PUSH1 0x0 DUP1 REVERT JUMPDEST PUSH2 0x59 PUSH2 0xB3 JUMP JUMPDEST PUSH1 0x40 MLOAD PUSH2 0x66 SWAP2 SWAP1 PUSH2 0xFC JUMP JUMPDEST PUSH1 0x40 MLOAD DUP1 SWAP2 SUB SWAP1 RETURN JUMPDEST PUSH2 0x77 PUSH2 0xB9 JUMP JUMPDEST PUSH1 0x40 MLOAD PUSH2 0x84 SWAP2 SWAP1 PUSH2 0x130 JUMP JUMPDEST PUSH1 0x40 MLOAD DUP1 SWAP2 SUB SWAP1 RETURN JUMPDEST PUSH2 0xA7 PUSH1 0x4 DUP1 CALLDATASIZE SUB DUP2 ADD SWAP1 PUSH2 0xA2 SWAP2 SWAP1 PUSH2 0x17C JUMP JUMPDEST PUSH2 0xBF JUMP JUMPDEST STOP JUMPDEST PUSH2 0xB1 PUSH2 0xC9 JUMP JUMPDEST STOP JUMPDEST PUSH1 0x1 SLOAD DUP2 JUMP JUMPDEST PUSH1 0x0 SLOAD DUP2 JUMP JUMPDEST DUP1 PUSH1 0x0 DUP2 SWAP1 SSTORE POP POP JUMP JUMPDEST PUSH1 0x1 PUSH1 0x0 DUP2 SLOAD DUP1 SWAP3 SWAP2 SWAP1 PUSH2 0xDC SWAP1 PUSH2 0x1D8 JUMP JUMPDEST SWAP2 SWAP1 POP SSTORE POP JUMP JUMPDEST PUSH1 0x0 DUP2 SWAP1 POP SWAP2 SWAP1 POP JUMP JUMPDEST PUSH2 0xF6 DUP2 PUSH2 0xE3 JUMP JUMPDEST DUP3 MSTORE POP POP JUMP JUMPDEST PUSH1 0x0 PUSH1 0x20 DUP3 ADD SWAP1 POP PUSH2 0x111 PUSH1 0x0 DUP4 ADD DUP5 PUSH2 0xED JUMP JUMPDEST SWAP3 SWAP2 POP POP JUMP JUMPDEST PUSH1 0x0 DUP2 SWAP1 POP SWAP2 SWAP1 POP JUMP JUMPDEST PUSH2 0x12A DUP2 PUSH2 0x117 JUMP JUMPDEST DUP3 MSTORE POP POP JUMP JUMPDEST PUSH1 0x0 PUSH1 0x20 DUP3 ADD SWAP1 POP PUSH2 0x145 PUSH1 0x0 DUP4 ADD DUP5 PUSH2 0x121 JUMP JUMPDEST SWAP3 SWAP2 POP POP JUMP JUMPDEST PUSH1 0x0 DUP1 REVERT JUMPDEST PUSH2 0x159 DUP2 PUSH2 0x117 JUMP JUMPDEST DUP2 EQ PUSH2 0x164 JUMPI PUSH1 0x0 DUP1 REVERT JUMPDEST POP JUMP JUMPDEST PUSH1 0x0 DUP2 CALLDATALOAD SWAP1 POP PUSH2 0x176 DUP2 PUSH2 0x150 JUMP JUMPDEST SWAP3 SWAP2 POP POP JUMP JUMPDEST PUSH1 0x0 PUSH1 0x20 DUP3 DUP5 SUB SLT ISZERO PUSH2 0x192 JUMPI PUSH2 0x191 PUSH2 0x14B JUMP JUMPDEST JUMPDEST PUSH1 0x0 PUSH2 0x1A0 DUP5 DUP3 DUP6 ADD PUSH2 0x167 JUMP JUMPDEST SWAP2 POP POP SWAP3 SWAP2 POP POP JUMP JUMPDEST PUSH32 0x4E487B7100000000000000000000000000000000000000000000000000000000 PUSH1 0x0 MSTORE PUSH1 0x11 PUSH1 0x4 MSTORE PUSH1 0x24 PUSH1 0x0 REVERT JUMPDEST PUSH1 0x0 PUSH2 0x1E3 DUP3 PUSH2 0xE3 JUMP JUMPDEST SWAP2 POP PUSH32 0x7FFFFFFFFFFFFFFFFFFFFFFFFFFFFFFFFFFFFFFFFFFFFFFFFFFFFFFFFFFFFFFF DUP3 SUB PUSH2 0x215 JUMPI PUSH2 0x214 PUSH2 0x1A9 JUMP JUMPDEST JUMPDEST PUSH1 0x1 DUP3 ADD SWAP1 POP SWAP2 SWAP1 POP JUMP INVALID LOG2 PUSH5 0x6970667358 0x22 SLT KECCAK256 0xBE 0x2B DUP6 DIV 0xD3 0xB5 LOG3 SMOD REVERT SDIV 0xA5 0xD8 PUSH12 0x2DA0518CC68CCEFE580743A0 GT PUSH14 0xD07F4CE47C64736F6C634300080E STOP CALLER "
		},
		"gasEstimates": {
			"creation": {
				"codeDepositCost": "119600",
				"executionCost": "22271",
				"totalCost": "141871"
			},
			"external": {
				"incrementInt()": "24545",
				"myInt()": "2407",
				"myUnit()": "2429",
				"setMyUnit(uint256)": "22542"
			}
		},
		"methodIdentifiers": {
			"incrementInt()": "f102a71d",
			"myInt()": "2cb777a6",
			"myUnit()": "6a345bb4",
			"setMyUnit(uint256)": "b36cbc5f"
		}
	},
	"abi": [
		{
			"inputs": [],
			"name": "incrementInt",
			"outputs": [],
			"stateMutability": "nonpayable",
			"type": "function"
		},
		{
			"inputs": [],
			"name": "myInt",
			"outputs": [
				{
					"internalType": "int256",
					"name": "",
					"type": "int256"
				}
			],
			"stateMutability": "view",
			"type": "function"
		},
		{
			"inputs": [],
			"name": "myUnit",
			"outputs": [
				{
					"internalType": "uint256",
					"name": "",
					"type": "uint256"
				}
			],
			"stateMutability": "view",
			"type": "function"
		},
		{
			"inputs": [
				{
					"internalType": "uint256",
					"name": "_myunit",
					"type": "uint256"
				}
			],
			"name": "setMyUnit",
			"outputs": [],
			"stateMutability": "nonpayable",
			"type": "function"
		}
	]
}